:100000000C94C3000C94EB000C94EB000C94EB00EC
:100010000C94EB000C94EB000C94EB000C94EB00B4
:100020000C94EB000C94EB000C9414060C947D06DD
:100030000C94EB000C94EB000C94EB000C94EB0094
:100040000C94EB000C94210A0C94EB000C94EB0044
:100050000C94EB000C94EB000C94EB000C94BF0898
:100060000C94EB000C94EB000C94EB000C94EB0064
:100070000C94EB000C94EB000C94EB000C94EB0054
:100080000C94EB000C94EB000C94EB000C94EB0044
:100090000C9409090C94EB000C94EB000C94EB000D
:1000A0000C94EB000C94EB000C94EB00080B00029A
:1000B0000202000009040000010202000005240001
:1000C0001001052401010104240206052406000193
:1000D0000705810310004009040100020A00000026
:1000E00007050202400000070583024000000403E8
:1000F000090412010002EF0201409A23018000016D
:1001000001020301416461667275697400333275DE
:100110003420427265616B6F75740000000000242A
:100120000027002A002D00300000000000250028D4
:10013000002B002E00310004040404040304050213
:100140000202020403020202020606060606060472
:100150000402020204040802011040804010204002
:1001600080408008020401804020100201108010AD
:100170002040400000000200090F000003040100BD
:100180000C000000A30A11241FBECFEFDAE0DEBF8F
:10019000CDBF15E0A0E0B1E0EEEFFDE102C00590BB
:1001A0000D92A23CB107D9F726E0A2ECB5E001C060
:1001B0001D92A53FB207E1F710E0C3ECD0E004C008
:1001C0002197FE010E94EE0EC23CD107C9F70E94A2
:1001D000C40A0C94FD0E0C94000090919806809136
:1001E00097062FEF3FEF981748F4E92FF0E0E95812
:1001F000F94F208130E09F5F90939806C9010895E0
:1002000090919806809197062FEF3FEF981748F44A
:10021000E92FF0E0E958F94F208130E09F5F90939B
:100220009806C9010895909176069111FCCF91E04E
:1002300090937606409375062FEF209374061092E4
:100240007306260F209372069093710690917106A3
:10025000880F892B80937106809170068130D9F4C4
:1002600010927006809171068093BB0085EC80939C
:10027000BC00809176068130E1F380917306861789
:1002800010F460917306A0E5B6E0E7E7F6E080E0E1
:10029000861303C0089585EEEACF9D9191938F5FF9
:1002A000F7CF41E0682F88E20E9413011092980670
:1002B000809397060895982F20914F0681E0213270
:1002C00008F03FC0809176068111FCCF80914E06E8
:1002D00032E030937606909375069FEF9093740604
:1002E0001092730620937206AEE2B6E0E0E5F6E007
:1002F00090E029132DC01092710690917106880F1D
:10030000892B8093710680917006813029F51092B7
:100310007006809171068093BB0085EC8093BC00D1
:10032000809176068230E1F3809174068F3FB1F0C0
:10033000809174068032A1F080917406803391F030
:1003400084E010922D0610924F0610922C0608950C
:100350003D9131939F5FCDCF85EEE0CF80E0F1CF2F
:1003600082E0EFCF83E0EDCF91E090932C06809375
:100370004E0610922D0610924F060895282F30E059
:10038000F901ED58FE4F9491F901EB5AFE4F84911B
:10039000295C3E4FF9012491222309F42DC09923B1
:1003A000E9F091509F30D0F4E92FF0E0E652FE4F93
:1003B0000C94EE0E05020902E901FD010102EE01B5
:1003C000EE01EE010C02120216021A022002EE01E8
:1003D0002402909180009F7790938000E22FF0E0BC
:1003E000EE0FFF1FE75DFE4FA591B4919FB7F89404
:1003F000EC918E2B8C939FBF0895909180009F7DF0
:10040000EBCF90918000977FE7CF94B59F7794BD15
:10041000E5CF94B59F7DFBCF909190009F7790930F
:100420009000DCCF909190009F7DF9CF909190004B
:10043000977FF5CF9091C0009F779093C000CECF6B
:100440009091C0009F7DF9CF9091C200977F9093CB
:10045000C200C4CF90E0FC01EB5AFE4F2491895CAE
:100460009E4FFC018491882399F090E0880F991F9A
:10047000FC01E55EFE4FA591B491FC01E75DFE4FE6
:10048000859194918FB7F894EC91E22BEC938FBF08
:10049000089590912B06911103C08FEF9FEF08955F
:1004A0004FB7F89492E09093E9009091F200292FD1
:1004B00030E01216130614F421E030E0232B29F06B
:1004C00084E680932A068091F100992339F02091E7
:1004D000F200211103C02BE62093E8004FBF9923BF
:1004E000E1F290E008952FB7F89483E08093E9005B
:1004F0009091E800892F807295FF04C09091F200DE
:1005000080E4891B2FBF08958091220681110DC0C0
:1005100082E080931E0684E080931F0610922106DD
:100520001092200681E0809322068EE196E00895E5
:1005300040910C0650910D0620910A0630910B0651
:1005400042175307B4F49091E8009570E1F390914D
:10055000E80092FD19C08093F10080910C06909103
:100560000D0601968F739927892B19F48EEF8093CE
:10057000E80080910C0690910D06019690930D066F
:1005800080930C0681E0089580E00895EF92FF9239
:100590000F931F93CF93DF93F82E192FE62E042F7E
:1005A00081E0860F880F0E94980283E00E949802E3
:1005B000CF2DD12FEC0EFD2EF11CCE15DF05B9F09D
:1005C00007FF13C0FE0184910E949802182F80E05B
:1005D0000E949802812321968111EFCFDF91CF9164
:1005E0001F910F91FF90EF9008958881EDCF81E0EA
:1005F000F5CFDF92EF92FF920F931F93CF93DF938C
:10060000D82E8A01EB017B01E40EF51ECE15DF0525
:1006100059F0D7FE12C0FE0184910E9498022196E3
:100620008111F4CF0FEF1FEFC801DF91CF911F9120
:100630000F91FF90EF90DF9008958881EECF0F9398
:100640001F93CF93DF931F92CDB7DEB782E08983EC
:1006500042E450E06CEA70E080E80E94F9020E94F7
:100660008402DC0112960D911C910115110589F08F
:10067000D801ED91FC910280F381E02DBE016F5F06
:100680007F4FC801099597FD04C0F80100851185C9
:10069000ECCF89810F90DF91CF911F910F91089539
:1006A000CF93DF931F92CDB7DEB76983DC01ED9165
:1006B000FC910280F381E02D41E050E0BE016F5FCC
:1006C0007F4F09950F90DF91CF91089583E080933C
:1006D000E9008091F200882319F08AE38093E80012
:1006E00008950E94730290E00895FC018485958529
:1006F00097FD05C02FEF3FEF3587248708950C94B1
:100700004902CF93DF93EC018C859D8597FF04C050
:100710000E9449029D878C878C859D85DF91CF91B2
:100720000895FC018485958597FD0BC09FB7F894CB
:1007300082E08093E9008091F2009FBF90E00196F3
:1007400008959FB7F89482E08093E9008091F200C9
:100750009FBF90E008953FB7F8948091060690916E
:100760000706A0910806B091090626B5A89B05C00A
:100770002F3F19F00196A11DB11D3FBFBA2FA92F20
:10078000982F8827BC01CD01620F711D811D911D1D
:1007900042E0660F771F881F991F4A95D1F7089589
:1007A0008F929F92AF92BF92CF92DF92EF92FF9281
:1007B0004B015C010E94AB036B017C010E94AB0307
:1007C0006C197D098E099F09683E7340810591056A
:1007D000A8F321E0821A9108A108B10888EEC80E9A
:1007E00083E0D81EE11CF11C81149104A104B10422
:1007F00029F7FF90EF90DF90CF90BF90AF909F9040
:100800008F9008958F929F92AF92BF92CF92DF9276
:10081000EF92FF920F931F93CF93DF936C017B01B5
:100820008A0180910B01882309F45BC080912B061B
:10083000882309F456C08091100680FF05C080917E
:10084000E00082608093E000E801B12C8AEFA82EDE
:1008500093E0892E2AE3922E209711F4BB20D9F140
:100860000E94730281110AC0AA94AA20D1F161E00A
:1008700070E080E090E00E94D003EECF8C171D0660
:1008800011F00CF08C2F9FB7F8948092E900209122
:10089000E80025FD02C09FBFDFCF282F30E0C21B3C
:1008A000D30BF701815020F041914093F100FACF32
:1008B000E20EF31EBB2021F09092E800B12CEBCFAA
:1008C0008091E80085FDE7CF9092E800BB24B394C7
:1008D000209709F3F3CF84E680930F0610161106D4
:1008E0003CF081E090E0F6019383828310E000E029
:1008F000C801DF91CF911F910F91FF90EF90DF9092
:10090000CF90BF90AF909F908F90089585ED80938A
:10091000BC008091BC0084FDFCCF10927606089547
:10092000613298F420917606243089F46093E205D0
:10093000282FA2ECB5E0FC018E2F821B861710F049
:1009400080E0089581918D93F7CF81E0089582E052
:1009500008950895E091980680919706E81730F47D
:10096000F0E0E958F94F808190E008958FEF9FEF14
:1009700008958091970690919806891B990B089588
:10098000CF92DF92EF92FF920F931F93CF93DF935B
:100990007C01CB018A0120912C06222389F0EB01F6
:1009A0006B01C40ED51ECC15DD0569F06991D70128
:1009B000ED91FC910190F081E02DC7010995F3CFF5
:1009C000642F0E949004C801DF91CF911F910F9175
:1009D000FF90EF90DF90CF900895CF93DF931F9219
:1009E000CDB7DEB7698320912C062223F9F0209140
:1009F0004F06203258F021E030E0FC01338322839F
:100A000090E080E00F90DF91CF91089580912D06C6
:100A1000E82FF0E0E25DF94F998190838F5F80933A
:100A20002D0680934F0681E090E0ECCF61E0CE018F
:100A300001960E949004F7CF682F89EE96E00C94FF
:100A4000ED0490E080E0089588E20E94B40190E017
:100A500080E00E941C0580E00E945B0141E061E0B3
:100A600088E20E94130110929806809397060E94D4
:100A70000001803A910541F70895FC0101900020A2
:100A8000E9F73197AF01481B590BBC0189E996E0A2
:100A90000C9402048F929F92AF92BF920F931F9378
:100AA000CF93DF93CDB7DEB7A1970FB6F894DEBF33
:100AB0000FBECDBF19A2423008F44AE08E010F5D8F
:100AC0001F4F842E912CB12CA12CA50194010E94C2
:100AD000CC0EE62FB901CA01EA30F4F4E05DD8018A
:100AE000EE938D01232B242B252B79F790E080E0CA
:100AF000109719F0CD010E943D05A1960FB6F8940C
:100B0000DEBF0FBECDBFDF91CF911F910F91BF9080
:100B1000AF909F908F900895E95CE1CF0C943D05D4
:100B2000CF93DF930E943D05EC0187E391E00E94A3
:100B30003D058C0F9D1FDF91CF910895BC01990F4A
:100B4000880B990B4AE00C944A05CF92DF92EF9202
:100B5000FF920F931F93CF93DF9388E20E94B4011B
:100B600085E390E00E941C0580E00E945B0181E02B
:100B700090E00E9451010E940001EC018AE391E0A3
:100B80000E948E056C2F70E090E080E042E00E94B1
:100B90004A0588E491E00E948E058E0186E0159555
:100BA00007958A95E1F703701127C8010E949E05F9
:100BB0008EE491E00E948E058C2F8F73C82ED12C6D
:100BC00094E0D594C7949A95E1F7C6010E949E05DA
:100BD00084E591E00E948E058C2F8F70E82EF12C19
:100BE000F594E794F594E794C7010E949E05C370BD
:100BF0000C0F0C0D8AE591E00E948E056C2F70E0C1
:100C000090E080E04AE00E944A0587E391E00E947C
:100C10003D05802F8E0DDF91CF911F910F91FF9099
:100C2000EF90DF90CF9008951F920F920FB60F9222
:100C300011248F939F938091E1009091E100937F25
:100C40009093E10083FF0FC01092E90091E0909330
:100C5000EB001092EC0092E39093ED0010922B06C3
:100C600098E09093F00082FF1CC093E09093E9001D
:100C70009091F200992319F09AE39093E8009091F3
:100C80000F06992329F090910F06915090930F062B
:100C900090912A06992329F090912A0691509093D9
:100CA0002A0684FF18C08091E2008E7E81608093C6
:100CB000E2008091E1008F7E8093E1008091100638
:100CC0008E7E8061809310069F918F910F900FBE52
:100CD0000F901F90189580FFF7CF8091E2008E7ED5
:100CE00080618093E2008091E1008E7E8093E1003C
:100CF000809110068E7E8160E5CF1F920F920FB615
:100D00000F921124CF92DF92EF92FF920F931F93D5
:100D10002F933F934F935F936F937F938F939F9303
:100D2000AF93BF93EF93FF93CF93DF93CDB7DEB72E
:100D30006C97DEBFCDBF1092E9008091E80083FF81
:100D40002FC089E0FE017596EE2EDF2E815029F02E
:100D50009091F10090833196F9CF84E680932A0632
:100D600082EF8093E8008D8987FF39C09091E80079
:100D700090FFFCCF982F907609F033C19E894F8960
:100D8000588D2F89F88C911131C0803861F5809190
:100D900011068093F1001092F1008EEF8093E8002D
:100DA0006C960FB6F894DEBF0FBECDBFDF91CF912A
:100DB000FF91EF91BF91AF919F918F917F916F9133
:100DC0005F914F913F912F911F910F91FF90EF9065
:100DD000DF90CF900F900FBE0F901F9018959EEF51
:100DE0009093E800C7CF1092F100D5CF913059F41D
:100DF0008111D3CF4130510581F6809111068D7F4D
:100E000080931106CACF933049F48111C6CF413087
:100E1000510519F6809111068260F2CF953041F4A8
:100E20008091E80080FFFCCF20682093E300B5CFDD
:100E3000963009F0A8C00B8D1C8D22E01092E900BD
:100E400010920D0610920C06F2122EC010920B0694
:100E500010920A060E941F031F8299E09983FA826A
:100E600091E09E8390EA98879AEF998720910C06EB
:100E700030910D06275F3F4F3C832B838D8310926B
:100E8000E90010920D0610920C0610930B060093C9
:100E90000A0649E050E0BE016F5F7F4F80E00E948C
:100EA000F9020E941F0379CF10930B0600930A06E4
:100EB0000E948402DC0112960D911C91011511050E
:100EC00009F457C1D801ED91FC910480F581E02D22
:100ED0006E2D7D2DC8010995009709F045C1F801D7
:100EE00000851185EBCFF3E0FF120EC08F898823B8
:100EF00009F440C0823061F440E86DE08DE091E09B
:100F00000E94C602811149CF81E28093EB0048CF55
:100F1000813029F440E868E084E091E0F1CF83304B
:100F200099F70E948402DC011296ED90FC908E01EC
:100F30000F5F1F4F6801E114F10479F0D701ED91C3
:100F4000FC910680F781E02DB801C7010995080FD3
:100F5000111DF701E084F184EECFD8011C92F60157
:100F600001900020E9F73197BF016C197D0940E03D
:100F7000C601C6CF6EEE70E0FB01449150E080E800
:100F80000E94F9020ACF973009F4BECF983021F4BD
:100F900081E08093F10001CF993009F0FECE83709B
:100FA00009F0B2CFEDE0F1E081E031E096E321918C
:100FB000222371F08093E9003093EB00DF01119759
:100FC0002C912093EC009093ED008F5F873079F7A0
:100FD0008EE78093EA001092EA008F8980932B06B7
:100FE000DCCE8B8D9C8D1092E90010920D06109234
:100FF0000C0690930B0680930A06898D81119AC086
:101000008E899D89913A49F4813209F07DCF47E07C
:1010100050E064E071E080E0B3CF913209F074CF2A
:10102000833269F48F89988DB0E0A0E0809300014D
:1010300090930101A0930201B0930301AECE8032E0
:10104000A9F48091E80082FFFCCF88E0E4E0F1E0C1
:10105000815029F09091F10090833196F9CF84E688
:1010600080932A068BEF8093E80097CE823209F0B6
:1010700094CE8F8980930B01EEEFFFE785919491D9
:101080008B3F9C4D51F1E0E0F8E08091040190919C
:101090000501A0910601B0910701803B9440A10594
:1010A000B105F1F480910B0180FD1AC0EE3F8AE09A
:1010B000F80789F587E797E791838083809160003F
:1010C00080930E0688E19BE00FB6F894A895809374
:1010D00060000FBE9093600060CEEEEFFAE0D5CFD7
:1010E000808191818737974709F057CEA8958091E5
:1010F000600088618093600080910E06809360009C
:10110000EE3F2AE0F20789F08091FE0A9091FF0AF3
:101110009183808342CE808191818737980751F2F5
:101120009093FF0A8093FE0AC5CF1092FF0A109297
:10113000FE0A33CE0E948402DC0112960D911C91AE
:101140000115110509F4E0CED801ED91FC91019053
:10115000F081E02D6E2D7D2DC801099581111DCEE8
:10116000F80100851185ECCF181619060CF415CE80
:10117000CBCEF1E0FF12B7CE62EF70E0FDCE1F9252
:101180000F920FB60F9211242F933F938F939F933B
:10119000AF93BF9380911A0690911B06A0911C06F5
:1011A000B0911D063091050623E0230F2D3758F529
:1011B0000196A11DB11D2093050680931A069093F8
:1011C0001B06A0931C06B0931D0680910606909105
:1011D0000706A0910806B09109060196A11DB11D50
:1011E0008093060690930706A0930806B09309061D
:1011F000BF91AF919F918F913F912F910F900FBE13
:101200000F901F90189526E8230F0296A11DB11D7F
:10121000D2CF1F920F920FB60F9211242F933F93AC
:101220004F935F936F937F938F939F93AF93BF93EE
:10123000EF93FF938091B900887F803609F44AC00C
:10124000F0F5883209F4A5C018F5803109F499C089
:10125000B8F4882309F4F2C0883009F492C0FF91F1
:10126000EF91BF91AF919F918F917F916F915F911E
:101270004F913F912F910F900FBE0F901F90189597
:10128000883109F486C0803251F78093740614C007
:10129000803409F49BC040F48033B9F38833F9F605
:1012A0008093740685ECAEC0803509F483C0883520
:1012B00009F494C0883499F60E948604D0CF883906
:1012C00009F48AC038F5883729F050F4883611F0CF
:1012D000803729F683E0809376061092040655C085
:1012E000883809F479C0803919F0803809F0B7CF0F
:1012F00080910406803208F06FC0E091040681E01E
:101300008E0F809304068091BB00F0E0EC51FA4F01
:1013100080833BC0803B39F0D0F4803A09F477C039
:10132000883A09F09CCF84E0809376061092E3051A
:101330001092E205F0E0E0E009958091E20581116C
:101340000FC081E08093E2051092C20509C0803C85
:1013500009F4A8CF883C09F4A5CF883B09F07FCFDA
:10136000E091E30581E08E0F8093E305F0E0EE531A
:10137000FA4F80818093BB009091E3058091E20554
:1013800029C0809171068093BB0085EC8093BC00DE
:1013900066CF9091730680917206981758F5E09188
:1013A000730681E08E0F80937306F0E0E05BF94FE7
:1013B0008081E9CFE091730681E08E0F8093730600
:1013C0008091BB00F0E0E05BF94F80839091730661
:1013D000809172069817C8F285E8D8CFE09173061D
:1013E00081E08E0F809373068091BB00F0E0E05B9C
:1013F000F94F80838091750681115ECF81E08093E3
:10140000700684EA8093BC001092760628CF809103
:101410000406803230F4E0910406F0E0EC51FA4F1B
:1014200010820E9486046091040670E084EE95E0CC
:10143000F0E0E0E009951092040634CF10927406B3
:101440003BCF78941F920F920FB60F921124CF9238
:10145000DF92EF92FF920F931F932F933F934F933F
:101460005F936F937F938F939F93AF93BF93CF932C
:10147000EF93FF930E94AB036B017C0185B1806EFB
:1014800085B9469ACFE00E94AB03DC01CB018C19F1
:101490009D09AE09BF09009112061091130630E0B4
:1014A00020E080179107A207B30710F04698C77095
:1014B000009114061091150630E020E08017910786
:1014C000A207B30710F02E98CB700091160610916A
:1014D000170630E020E080179107A207B30710F04D
:1014E0002D98CD70009118061091190630E020E07B
:1014F00080179107A207B30710F02F98CE70803D98
:101500009740A105B10528F085B18F7185B946983E
:1015100002C0C111B8CFFF91EF91CF91BF91AF91B0
:101520009F918F917F916F915F914F913F912F91FB
:101530001F910F91FF90EF90DF90CF900F900FBE13
:101540000F901F901895E9E9F6E01382128288EE59
:1015500093E0A0E0B0E084839583A683B78327E17E
:1015600031E0318320832FEF3FEF35872487E9EE89
:10157000F6E01382128284839583A683B78389E27F
:1015800091E0918380830895CF93DF93CDB7DEB749
:1015900060970FB6F894DEBF0FBECDBF789484B5C8
:1015A000826084BD84B5816084BD85B5826085BD5F
:1015B00085B5816085BD80916E00816080936E00ED
:1015C00010928100809181008260809381008091DF
:1015D0008100816080938100809180008160809390
:1015E00080008091910082608093910080919100B1
:1015F0008160809391008091900081608093900041
:101600008091C10084608093C1008091C10082609C
:101610008093C1008091C10081608093C10080915E
:10162000C30081608093C3008091C000826080937A
:10163000C0008091C20081608093C20080917A00D6
:10164000846080937A0080917A00826080937A002F
:1016500080917A00816080937A0080917A0080681E
:1016600080937A0010922B061092110610921006A9
:101670008091D70081608093D70080EA8093D80062
:1016800089B5806189BD89B5826089BD09B400FED4
:10169000FDCF61E070E080E090E00E94D003809197
:1016A000D8008F7C80618093D8008091E000807F9B
:1016B0008093E0008091E1008E7E8093E1008DE0D8
:1016C0008093E20080ED97E09093190680931806CE
:1016D0009093170680931606909315068093140630
:1016E00090931306809312061092800082E08093FC
:1016F000810010928500109284008FE39CE9909302
:10170000890080938800B19A80916F0082608093F5
:101710006F008091810088608093810085B18F7116
:1017200085B9469887E00E942A0282E10E942A0237
:1017300085E00E942A0289E00E942A028AE00E9433
:101740002A028BE00E942A0282E10E94BE01769862
:10175000109298061092970610922D0610924F063E
:101760001092760681E0809375061092700682E0F2
:101770000E94BE0183E00E94BE018091B9008E7F6D
:101780008093B9008091B9008D7F8093B90088E47F
:101790008093B80085E48093BC000E9424058FEFFD
:1017A0009FEF9093A6068093A50668EB7BE080E010
:1017B00090E00E94D00380E691E00E949005109294
:1017C000190610921806109217061092160610921B
:1017D000150610921406109213061092120688E253
:1017E0000E94B4018FE390E00E941C0580E490E029
:1017F0000E941C0581E00E945B010E94240588E292
:101800000E94B4018EE390E00E941C0590E080E00D
:101810000E941C0581E00E945B0162E370E080E0B1
:1018200090E00E94D0034E0129E0820E911C10E04E
:1018300000E0C8010E94B60EF40181934F010F5FD2
:101840001F4F08301105A9F788E20E94B40187E014
:1018500090E00E941C0581E090E00E941C0581E060
:101860000E945B0188E20E94B40180E590E00E9442
:101870001C0580E00E945B0188E090E00E9451011D
:101880000E9400018C010E940001612C782E602AC8
:10189000712A0E9400010E9400010E9400010E9422
:1018A00000010E9400010E940001972C990C9908E8
:1018B00069827A829B829C829D829E829F82988688
:1018C00088E20E94B40187E090E00E941C0590E04D
:1018D00080E00E941C0581E00E945B0188E20E947A
:1018E000B4018DE390E00E941C0590E080E00E942E
:1018F0001C0581E00E945B01A984BA84CB84DC844E
:10190000ED84FE840F8518899301492D592D692D89
:10191000792D892D992D0E94F40E09F43EC086E69A
:1019200091E00E949005412C512C32010EE010E014
:1019300088248394912C0E94A5058C3011F476990B
:1019400050C09FB7F89440911A0650911B066091C1
:101950001C0670911D069FBF6A017B01C418D50843
:10196000E608F7089801281B3109F40102C0EE0FC0
:10197000FF1F2A95E2F7CF01092E000CAA0BBB0B23
:10198000C816D906EA06FB0608F00CC164E670E04A
:1019900080E090E00E94D003CECF85EB91E00E94E2
:1019A000900581EE91E00E94900588E20E94B401CA
:1019B00085E590E00E941C0508E010E0C8010E9447
:1019C000B60E682F89EE96E00E94ED040F5F1F4F60
:1019D0000E31110599F781E00E945B0187E592E0E5
:1019E00048C076989E012F5F3F4F490110E000E00C
:1019F000F40171904F01C8010E94B60E781621F0D3
:101A0000672DC8010E94BE0E0F5F1F4F08301105E1
:101A100079F78DE092E00E94900588E20E94B4017F
:101A200085E590E00E941C0580E00E945B0186E154
:101A300090E00E94510108E010E00E9400014C017A
:101A4000C8010E94B60E881521F0682DC8010E94B9
:101A5000BE0E0F5F1F4FC8010E94B60E891521F000
:101A6000692DC8010E94BE0E0E31110531F783E3C6
:101A700092E00E94900588E20E94B40181E490E027
:101A80000E941C0581E290E00E941C0581E00E94FA
:101A90005B0188E20E94B40182E490E00E941C0590
:101AA00084E090E00E941C0581E00E945B0188E2D6
:101AB0000E94B4018BE390E00E941C0588E090E056
:101AC0000E941C0581E00E945B0188E20E94B40133
:101AD0008DE390E00E941C058CE090E00E941C05C4
:101AE00081E00E945B0164E670E080E090E00E948B
:101AF000D0030E9424058BE792E00E9490050E948B
:101B0000A50588E20E94B40186E390E00E941C05CE
:101B100080E00E945B0185E090E00E94510189E92C
:101B200092E00E948E050E940001182F682F70E03D
:101B300090E080E042E00E944A0513FF04C085EA7D
:101B400092E00E948E0512FF04C08DEA92E00E948E
:101B50008E0511FF04C085EB92E00E948E0510FFF8
:101B600004C08DEB92E00E948E050E9400010E944D
:101B7000000187E391E00E943D0585EC92E00E9420
:101B80008E050E94000187309105C0F4FC01E553E9
:101B9000F24F0C94EE0EDA0DF70DFA0DFD0D000E5E
:101BA000030E060E769904C0769A2A013B01EECE0A
:101BB0007698FBCF85ED92E00E94900585E993E051
:101BC0000E948E050E9400018B30910530F5FC01CA
:101BD000E451F24F0C94EE0E090E390E3C0E3F0EFE
:101BE000420E450E480E4B0E4E0E510E540E85EE13
:101BF00092E0E2CF86EF92E0DFCF83E193E0DCCFAB
:101C00008EE293E0D9CF85E493E0D6CF89E693E0E6
:101C1000D3CF84EA93E00E94900588E20E94B40149
:101C20008DE390E00E941C0580E00E945B0182E051
:101C300090E00E9451018EE295E00E948E050E9484
:101C400000018F7099278D30910508F034C0FC0198
:101C5000E45DF14F0C94EE0E570E8C0E8F0E920E2B
:101C6000950E980E9B0E9E0EA10EA40EA70EAA0E08
:101C7000AD0E81EB93E0CFCF86ED93E0CCCF87EF35
:101C800093E0C9CF83E194E0C6CF87E394E0C3CF6C
:101C90008DE594E0C0CF8AE794E0BDCF8BEB94E074
:101CA000BACF86EE94E0B7CF8FE095E0B4CF8FE364
:101CB00095E00E9490058BE995E00E948E050E94B8
:101CC00000018130910509F44BC08230910509F47F
:101CD0004AC0892B21F488EA95E00E94900560E4CF
:101CE0007FE180E090E00E94D003769A00E010E06F
:101CF00062E370E080E090E00E94D003769862E3B7
:101D000070E080E090E00E94D003769A0115110502
:101D100079F30E940000ECCF86E495E0CACF8EE410
:101D200095E0C7CF86E595E0C4CF8EE595E0C1CFBD
:101D300085E695E0BECF8DE695E0BBCF85E795E0E3
:101D4000B8CF89E795E0B5CF8DE795E0B2CF85E8CC
:101D500095E0AFCF89E895E0ACCF86E995E0A9CFD3
:101D60008FEA95E0BACF89EB95E0B7CFF999FECF2E
:101D700092BD81BDF89A992780B50895262FF999CB
:101D8000FECF1FBA92BD81BD20BD0FB6F894FA9A5E
:101D9000F99A0FBE01960895A1E21A2EAA1BBB1B49
:101DA000FD010DC0AA1FBB1FEE1FFF1FA217B30727
:101DB000E407F50720F0A21BB30BE40BF50B661F3D
:101DC000771F881F991F1A9469F760957095809501
:101DD00090959B01AC01BD01CF010895EE0FFF1F4F
:101DE0000590F491E02D09942A153B054C055D05FD
:0E1DF0006E057F05800791070895F894FFCFD8
:101DFE00FFFFFFFF00E100000000000000C1808136
:101E0E0000000000000000500302047103660391FD
:101E1E00037503810300000000ED04C0042105A931
:101E2E0004B904ED00AA040D0A0043414C49425284
:101E3E004154494F4E3A2000205359533D002047FC
:101E4E0059523D00204143433D00204D41473D0046
:101E5E005374617274004E6F2043616C69627261DB
:101E6E0074696F6E204461746120666F72207468AD
:101E7E0069732073656E736F7220657869737473FE
:101E8E0020696E20454550524F4D206F722073745D
:101E9E006F7265642064617461206F766572726919
:101EAE006464656E00466F756E642043616C696292
:101EBE00726174696F6E20666F7220746869732028
:101ECE0073656E736F7220696E20454550524F4D8B
:101EDE0000526573746F72696E672043616C69623C
:101EEE00726174696F6E206461746120746F207406
:101EFE00686520424E4F3035352E2E2E00577269B2
:101F0E0074696E672043616C6962726174696F6E89
:101F1E00206461746120746F20454550524F4D2EE0
:101F2E002E2E0043616C6962726174696F6E20645B
:101F3E00617461206C6F6164656420696E746F20DA
:101F4E00454550524F4D0043616C69627261746930
:101F5E006F6E2064617461206C6F616465642069CA
:101F6E006E746F20424E4F303535002D2D2D2D2D98
:101F7E002D2D2D2D2D494E495420444F4E452D2D9E
:101F8E002D2D2D2D2D2D2D2D0053542052455355D5
:101F9E004C543A2000204D4355204F4B00204759BA
:101FAE0052204F4B00204D4147204F4B00204143C4
:101FBE0043204F4B0053595354454D2053544154D5
:101FCE0055533A200030202D2053797374656D20BF
:101FDE0069646C650031202D2053797374656D2012
:101FEE004572726F720032202D20496E69746961DC
:101FFE006C697A696E672070657269706865726166
:10200E006C730033202D2053797374656D20496EE7
:10201E0069742069616C697A6174696F6E0034202D
:10202E002D20457865637574696E672073656C66DF
:10203E00746573740035202D2053656E736F722096
:10204E00667573696F6E20616C676F726974686D07
:10205E002072756E6E696E670036202D205379736F
:10206E0074656D2072756E6E696E6720776974681F
:10207E006F757420667573696F6E20616C676F7211
:10208E006974686D0053595354454D204552524F53
:10209E00523A200030202D204E6F206572726F72E2
:1020AE000031202D205065726970686572616C2058
:1020BE00696E69742069616C697A6174696F6E20EA
:1020CE006572726F720032202D2053797374656DB4
:1020DE0020696E69742069616C697A6174696F6ECA
:1020EE00206572726F720033202D2053656C66204E
:1020FE007465737420726573756C74206661696C97
:10210E0065640034202D20526567697374657220F2
:10211E006D61702076616C7565206F7574206F66C9
:10212E002072616E67650035202D205265676973D8
:10213E00746572206D6170206164647265737320C2
:10214E006F7574206F662072616E67650036202D84
:10215E00205265676973746572206D6170207772A5
:10216E00697465206572726F720037202D20424EA1
:10217E004F206C6F7720706F776572206D6F64657E
:10218E00206E6F7420617661696C61626C65206689
:10219E006F722073656C6563746564206F70657211
:1021AE006174696F6E206D6F64650038202D20415B
:1021BE006363656C65726F6D6574657220706F77A1
:1021CE006572206D6F6465206E6F74206176616933
:1021DE006C61626C650039202D20467573696F6ED7
:1021EE0020616C676F726974686D20636F6E6669CB
:1021FE006775726174696F6E206572726F720041DD
:10220E00202D2053656E736F7220636F6E66696743
:10221E0075726174696F6E206572726F72004F50C5
:10222E0045524154494F4E204D4F44453A200043AC
:10223E004F4E464947004143434F4E4C59004D4186
:10224E00474F4E4C59004759524F4E4C590041433F
:10225E00434D4147004143434759524F004D41477B
:10226E004759524F00414D4700494D5500434F4D80
:10227E0050415353004D3447004E444F465F464D38
:10228E00435F4F4646004E444F4600504F5745520F
:10229E00204D4F44453A20004E4F524D414C004C7C
:1022AE004F5720504F5745520053555350454E44AB
:0222BE0000001E
:1070000055C000006EC000006CC000006AC00000E7
:1070100068C0000066C0000064C0000062C00000DC
:1070200060C000005EC0000065C400005AC00000DF
:1070300058C0000056C0000054C0000052C00000FC
:1070400050C000004EC000004CC000004AC000000C
:1070500048C0000046C0000044C0000042C000001C
:1070600040C000003EC000003CC000003AC000002C
:1070700038C0000036C0000034C0000032C000003C
:1070800030C000002EC000002CC000002AC000004C
:1070900028C0000026C0000024C0000022C000005C
:1070A00020C000001EC000001CC0000011241FBE34
:1070B000CFEFDAE0DEBFCDBF11E0A0E0B1E0EEE25D
:1070C000FEE702C005900D92AC38B107D9F711E088
:1070D000ACE8B1E001C01D92AD39B107E1F7F2D2E1
:1070E000A4C68ECF84E08093E9000DC08091E800B3
:1070F0008B778093E80003C08EB3882351F0809192
:10710000E80082FFF9CF8091E80085FFEFCF809102
:10711000F1000895982F83E08093E9008091E800C2
:1071200085FD0DC08091E8008E778093E80003C054
:107130008EB3882331F08091E80080FFF9CF9093DF
:10714000F10008954F925F926F927F928F929F927B
:10715000AF92BF92CF92DF92EF92FF920F931F9365
:10716000CF93DF9384E08093E9008091E80082FF71
:1071700044C210928C01B6DF082F8C3409F43BC056
:107180008035C9F1843529F0853429F410920F0136
:1071900032C0A8DF30C0843721F484E4BBDF80E054
:1071A00002C2813611F489E5FEC1813431F59ADFDE
:1071B000F82EFF0CEE240027F7FC0095102FE0922C
:1071C0008F01F092900100939101109392018ADF58
:1071D00090E0880F991FAA2797FDA095BA2F8E29B6
:1071E0009F29A02BB12B80938F0190939001A093A6
:1071F0009101B09392018DE0D6C1803711F483E5FF
:10720000D2C1833549F4C0E0D1E0899183DF21E028
:10721000C730D207D1F7C8C1863521F481E37ADFC0
:1072200080E3C1C1833731F487E874DF85E972DF19
:107230008EE1B9C1823631F489E56CDF80E06ADF26
:1072400080E8B1C18536B9F4E0E0F0E093E085E094
:1072500090935700E89507B600FCFDCF8093570048
:10726000E89507B600FCFDCFEF57FF4F20E7EF355D
:10727000F20771F7C0CF8C3651F434DF809599E076
:10728000E1E0F0E0082E90935700E895B4CF823704
:1072900039F4E1E0F0E089E080935700849183C104
:1072A000863439F4E0E0F0E089E08093570084917F
:1072B0007AC18E3439F4E3E0F0E089E0809357003E
:1072C000849171C1813539F4E2E0F0E089E0809386
:1072D0005700849168C1833471F400918F0110913B
:1072E000900100DF90E021E0F8010C0120935700AD
:1072F000E895112480CF833679F400918F011091A5
:1073000090010160EFDE90E021E0F8010C01209394
:107310005700E895112414C18D3661F4E0918F0176
:10732000F091900185E080935700E89507B600FC46
:10733000FDCF61CF823419F0873609F0E3C0D2DE89
:10734000E82ED0DED82ECEDEA82E8554823008F06E
:1073500029C19E2D80E0CD2DD0E0C82BD92B07363A
:1073600009F052C081E180935700E89500E011E0F8
:1073700047C0F6E4AF1611F5E02FF0E080918F01E1
:1073800090919001E82BF92BE4918E2FC3DE00231E
:1073900099F080918F0190919001A0919101B0910D
:1073A00092010296A11DB11D80938F0190939001CF
:1073B000A0939101B0939201012721C080918F0188
:1073C00090919001A0919101B0919201B695A795ED
:1073D0009795879514D59EDE80918F0190919001AD
:1073E000A0919101B09192010296A11DB11D8093CF
:1073F0008F0190939001A0939101B09392012197F6
:10740000209709F0B6CFD0C060908F0170909001A6
:10741000809091019090920126E4A21609F05EC03E
:1074200083E0F30180935700E89507B600FCFDCF99
:1074300055C0F6E4AF1669F5BB2031F100918F011C
:10744000109190014FDED82ECC24852D90E08C2910
:107450009D29F8010C0140925700E8951124809174
:107460008F0190919001A0919101B09192010296AB
:10747000A11DB11D80938F0190939001A093910164
:10748000B0939201BB2428C02DDE582EBB24B394A8
:1074900023C0E0908F01F090900100919101109134
:1074A000920116950795F794E7941CDE682FC701A3
:1074B000AED480918F0190919001A0919101B091F3
:1074C00092010296A11DB11D80938F0190939001AE
:1074D000A0939101B0939201219704C05524BB243D
:1074E00044244394209709F0A4CFF6E4AF1609F0A2
:1074F00082CE85E0F30180935700E89507B600FC43
:10750000FDCF79CE823551F4E0918F01F091900159
:1075100005911491812FFEDD802F45C08434E1F464
:10752000E0908F01F09090010091910110919201F3
:1075300016950795F794E794D5DD682FC70167D4B2
:1075400080918F0190919001A0919101B091920151
:107550000296A11DB11D47CE843611F580918F0191
:1075600090919001A0919101B0919201B695A7954B
:107570009795879544D4CEDD80918F0190919001AD
:10758000A0919101B09192010296A11DB11D80932D
:107590008F0190939001A0939101B093920104C048
:1075A0008B3111F08FE3B6DD83E08093E900909199
:1075B000E8008091E8008E778093E80095FF04C092
:1075C00010C08EB38823C9F08091E80080FFF9CF06
:1075D0008091E8008E778093E80003C08EB3882303
:1075E00061F08091E80080FFF9CF84E08093E900AA
:1075F0008091E8008B778093E800DF91CF911F9115
:107600000F91FF90EF90DF90CF90BF90AF909F9041
:107610008F907F906F905F904F900895809196012A
:107620008032B1F0813239F580919501813A19F5B6
:107630008091E800877F8093E80088E091E067E030
:1076400070E023D38091E8008B778093E800089561
:1076500080919501813279F48091E800877F809351
:10766000E80088E091E067E070E073D38091E80083
:107670008E778093E800089582E061EC42E0ADD01F
:1076800083E061E842E1A9D084E060E842E1A5C07E
:1076900084B7877F84BF88E10FB6F8948093600039
:1076A000109260000FBE80E090E020E80FB6F894E2
:1076B00020936100809361000FBE81E085BF82E06E
:1076C00085BF02C1FF920F931F93CF93DF9324B71F
:1076D00014BE809160008861809360001092600009
:1076E00010928C0130E0F901E270F07021FD0AC0C7
:1076F000859194918F5F9F4F29F0E0918D01F091DA
:107700008E010995C5DF6E9A769A7894FF2410E071
:1077100001E0E0E0F0E0C591D49121C013DD5DD33C
:10772000F39411F4100F769AF11609F476981F3F2E
:1077300011F40FEF0AC0112341F4013031F08091B0
:107740008C018F5F80938C0101E080918C018530EA
:1077500030F08FEFCF3FD80711F010920F018091DA
:107760000F018823D9F68091E00081608093E000CA
:107770002CE088E190E00FB6F894A8958093600023
:107780000FBE20936000FFCFFA01923071F093306A
:1077900089F0913029F480E191E022E130E019C0D4
:1077A00080E090E020E030E014C082E291E02EE33F
:1077B00030E00FC0882339F480916001282F30E039
:1077C00080E691E006C080916401282F30E084E6D5
:1077D00091E091838083C90108958093E9008091AD
:1077E000EB0081608093EB001092ED006093EC0061
:1077F0004093ED008091EE00881F8827881F089530
:107800008091950188238CF403C08EB38823B1F056
:107810008091E80082FFF9CF8091E8008B77809318
:10782000E80008958EB3882349F08091E80080FF36
:10783000F9CF8091E8008E778093E80008954DD0CD
:1078400054D08091D800982F9F779093D80080686B
:107850008093D8008AE482BF80E189BD89B58260C7
:1078600089BD09B400FEFDCF8091D8008F7D809343
:10787000D8001EBA109293018091E0008B7F809314
:10788000E0008091D80081608093D80080E060E0C3
:1078900042E0A3DF8091E1008E7F8093E100809140
:1078A000E20081608093E2008091E2008860809332
:1078B000E2008091E0008E7F8093E0008091D8000C
:1078C00080618093D8000895E7EDF0E080818160C9
:1078D000808381E080939401B2CFE8EDF0E0808175
:1078E0008E7F80831092E20008951092DA00109249
:1078F000E10008951F920F920FB60F9211242F935B
:107900003F934F935F936F937F938F939F93AF9327
:10791000BF93EF93FF938091DA0080FF13C08091B3
:10792000D80080FF0FC08091DA008E7F8093DA004C
:107930008091D90080FF04C081E08EBBA5D102C038
:107940001EBAA2D18091E10080FF1CC08091E200AC
:1079500080FF18C08091E1008E7F8093E1008091CC
:10796000E2008E7F8093E2008091E200806180934C
:10797000E2008091D80080628093D80019BC85E035
:107980008EBB82D18091E10084FF2DC08091E20006
:1079900084FF29C080E189BD89B5826089BD09B4B1
:1079A00000FEFDCF8091D8008F7D8093D80080911C
:1079B000E1008F7E8093E1008091E2008F7E8093D2
:1079C000E2008091E20081608093E2008091930167
:1079D000882331F48091E30087FD02C081E001C07B
:1079E00084E08EBB51D18091E10083FF21C0809162
:1079F000E20083FF1DC08091E100877F8093E1005A
:107A000082E08EBB109293018091E1008E7F809383
:107A1000E1008091E2008E7F8093E2008091E2009D
:107A200080618093E20080E060E042E0D6DE2CD10D
:107A30008091E10082FF0AC08091E20082FF06C0CF
:107A40008091E1008B7F8093E1001ED1FF91EF9147
:107A5000BF91AF919F918F917F916F915F914F9166
:107A60003F912F910F900FBE0F901F9018950F937D
:107A70001F93DF93CF9300D0CDB7DEB7E5E9F1E0F8
:107A80008091F100819381E0ED39F807C9F7809189
:107A9000950190919601953009F46DC0963040F4AF
:107AA000913081F1913070F0933009F0D7C02AC045
:107AB000983009F4A5C0993009F4B4C0963009F0A3
:107AC000CDC07EC0803809F4CAC0823809F0C6C073
:107AD0008091990187708093E9008091EB0010926A
:107AE000E9002091E800277F2093E80090E025E05E
:107AF000969587952A95E1F781708093F100109211
:107B0000F10089C0882319F0823009F0A7C08F7175
:107B1000823009F0A4C080919701882331F520912B
:107B20009901277009F49BC02093E9008091EB0034
:107B300080FF1BC0933021F48091EB00806213C062
:107B40008091EB0080618093EB0081E090E002C0C7
:107B5000880F991F2A95E2F78093EA001092EA00B5
:107B60008091EB0088608093EB001092E900809197
:107B7000E800877F53C0882309F070C010919701F7
:107B80001F770FB7F8948091E800877F8093E80013
:107B900037DE8091E80080FFFCCF112311F482E0F2
:107BA00001C083E08EBB8091E3008078182B109396
:107BB000E3008091E30080688093E3000FBF4FC033
:107BC0008058823008F04AC08091970190919801C6
:107BD00060919901AE014F5F5F4FD6DDBC01009708
:107BE00009F43DC08091E800877F8093E800898197
:107BF0009A814BD08091E8008B778093E8002FC06A
:107C0000803861F58091E800877F8093E80080915B
:107C100093018093F1008091E8008E778093E800D3
:107C2000EFDD1DC08823D1F4909197019230B8F414
:107C30008091E800877F8093E80090939301E0DDD6
:107C400080919301882331F48091E30087FD02C085
:107C500081E001C084E08EBB0FDD01C0DFDC8091DC
:107C6000E80083FF0AC08091EB0080628093EB0004
:107C70008091E800877F8093E8000F900F90CF916C
:107C8000DF911F910F91089508959C0140919B01F0
:107C900050919C014617570718F4F90190E044C031
:107CA0006115710511F0AB01F8CF8091E8008E7776
:107CB0008093E80040E050E0F0CF8EB3882309F4D1
:107CC00044C0853009F443C08091E80083FF02C0BE
:107CD00081E008958091E80082FD31C08091E80044
:107CE00080FF22C08091F3009091F200782F60E035
:107CF000292F30E0262B372B07C081918093F1008C
:107D0000415050402F5F3F4F4115510519F0283029
:107D1000310598F390E02830310509F491E0809125
:107D2000E8008E778093E8004115510531F69923DC
:107D300021F605C08EB3882341F0853041F0809153
:107D4000E80082FFF7CF80E0089582E0089583E0A5
:107D500008959C016115710529F48091E8008B77E5
:107D60008093E800F90126C08EB3882391F1853015
:107D700091F18091E80083FF02C081E00895809135
:107D8000E80082FFF1CF06C08091F100819361503D
:107D9000704059F02091F3008091F200322F20E0E2
:107DA00090E0822B932B892B79F78091E8008B77D9
:107DB0008093E80061157105B9F605C08EB388237C
:107DC00041F0853041F08091E80080FFF7CF80E0FE
:107DD000089582E0089583E008951F938EB3882369
:107DE00061F01091E9001092E9008091E80083FFB2
:107DF00001C03DDE17701093E9001F910895F999B5
:107E0000FECF92BD81BDF89A992780B50895262F9F
:107E1000F999FECF1FBA92BD81BD20BD0FB6F8946F
:0E7E2000FA9AF99A0FBE01960895F894FFCFD2
:107E2E004C55464143444300000000000000080149
:107E3E0012011001020000089A2301000100000146
:107E4E00000109023E000201008032090400000117
:107E5E000202010005240010010424020405240678
:107E6E0000010705820308000209040100020A004E
:107E7E000000070504021000000705830210000031
:107E8E00040309042603410056005200200043005B
:107E9E0044004300200042006F006F0074006C002D
:0C7EAE006F0061006400650072000000BD
:040000030000700089
:00000001FF
