:107000005FC0000078C0000076C0000074C00000BF
:1070100072C0000070C000006EC000006CC00000B4
:107020006AC0000068C000004CC4000064C00000DA
:1070300062C0000060C000005EC000005CC00000D4
:107040005AC0000058C0000056C0000054C00000E4
:1070500052C0000050C000004EC000004CC00000F4
:107060004AC0000048C0000046C0000044C0000004
:1070700042C0000040C000003EC000003CC0000014
:107080003AC0000038C0000036C0000034C0000024
:1070900032C0000030C000002EC000002CC0000034
:1070A0002AC0000028C0000026C000003C3D583D1A
:1070B000163E583D163E903DB43D163ED43DE73D4C
:1070C00011241FBECFEFDAE0DEBFCDBF11E0A0E09C
:1070D000B1E0EEECFDE702C005900D92AC38B107CF
:1070E000D9F721E0ACE8B1E001C01D92AD39B2079B
:1070F000E1F7D9D26AC684CF84E08093E900809119
:10710000E80085FD0DC08091E8008B778093E80052
:107110008091E80082FDF3CF8EB38111F9CF02C0D8
:107120008091F100089593E09093E9009091E80038
:1071300095FF03C08093F10008959091E8009E7739
:107140009093E8009091E80090FDF4CF9EB39111E8
:10715000F9CF089584B7877F84BF0FB6F894A895B8
:1071600080916000886180936000109260000FBE83
:1071700090E080E80FB6F8948093610090936100EE
:107180000FBE81E085BF82E085BF85C342E061EC30
:1071900082E00CD342E161E883E008D342E160E899
:1071A00084E004C3809196018032A1F0813229F5F8
:1071B00080919501813A09F58091E800877F80935D
:1071C000E80067E070E081E091E03AD58091E80066
:1071D0008B7711C080919501813279F48091E8001C
:1071E000877F8093E80067E070E081E091E085D5DB
:1071F0008091E8008E778093E80008958F929F92A7
:10720000AF92BF92CF92DF92EF92FF920F931F93B4
:10721000CF93DF9384E08093E9008091E80082FFC0
:1072200035C210928E0168DFC82F8C3409F446C035
:10723000803509F443C0843529F0853429F410924F
:1072400000013CC059DF3AC0843729F484E46BDF85
:1072500080E069DFF2C1813611F489E5FACF81342B
:1072600079F54ADF90E0982F8827990F092E000CB6
:10727000AA0BBB0B80938F0190939001A093910177
:10728000B093920139DF90E0880F991F092E000C0E
:10729000AA0BBB0B40918F0150919001609191011D
:1072A00070919201842B952BA62BB72B80938F0185
:1072B00090939001A0939101B09392018DE0C9CF7A
:1072C000803711F483E5C5CF833551F4C4E8D1E0AC
:1072D0000BE811E0899127DF0C171D07D9F7ADC125
:1072E000863521F481E31FDF80E3B3CF833731F4A8
:1072F00087E819DF85E917DF8EE1ABCF823631F4FD
:1073000089E511DF80E00FDF80E8A3CF8536B9F48F
:10731000E0E0F0E083E095E080935700E89507B661
:1073200000FCFDCF90935700E89507B600FCFDCF19
:10733000EF57FF4FEF3520E7F20771F7BFCF8C36DD
:1073400051F4DADE809599E0E1E0F0E0082E9093C8
:107350005700E895B3CF823719F4E1E0F0E00EC0B2
:10736000863419F4E0E0F0E009C08E3419F4E3E06B
:10737000F0E004C0813539F4E2E0F0E089E0809388
:107380005700849166CF833471F4C0918F01D091FE
:107390009001B2DE90E021E0FE010C012093570045
:1073A000E89511248BCF833679F4C0918F01D09169
:1073B0009001C160A1DE90E021E0FE010C0120936C
:1073C0005700E895112406C18D3661F4E0918F01D4
:1073D000F091900185E080935700E89507B600FC96
:1073E000FDCF6CCF823419F0873609F0D6C084DE29
:1073F000082F82DED82F80DE182F8BEB810F823092
:1074000010F08FE326CF8D2F90E0902BC73609F038
:107410004EC021E120935700E895EC0100E0FF24E5
:10742000F394209709F409C11634F1F4E0918F0127
:10743000F0919001E02B849176DE002399F0809109
:107440008F0190919001A0919101B09192010296CB
:10745000A11DB11D80938F0190939001A093910184
:10746000B09392010F2521C080918F0190919001DE
:10747000A0919101B0919201B695A79597958795A6
:107480008ED451DE80918F0190919001A091910155
:10749000B09192010296A11DB11D80938F0190932E
:1074A0009001A0939101B09392012197BACF80905F
:1074B0008F0190909001A0909101B09092011634AC
:1074C00041F423E0F40120935700E89507B600FC4F
:1074D000FDCFF12C00E0EC01EE24E394209709F4B9
:1074E00050C0163451F5002321F1C0908F01D09087
:1074F000900102DE2F2D30E0A901582BF6010A0180
:10750000E0925700E895112480918F0190919001AD
:10751000A0919101B09192010296A11DB11D80939D
:107520008F0190939001A0939101B093920100E09C
:1075300026C0E2DDF82E01E022C0DEDD682F80915A
:107540008F0190919001A0919101B0919201B69517
:10755000A795979587952BD480918F019091900155
:10756000A0919101B09192010296A11DB11D80934D
:107570008F0190939001A0939101B0939201219774
:10758000ADCF163409F09ACE85E0F4018093570010
:10759000E89507B600FCFDCF91CE823551F4E0911D
:1075A0008F01F0919001C591D4918D2FBCDD8C2F6E
:1075B00050CE8434D9F4A0DD682F80918F01909152
:1075C0009001A0919101B0919201B695A7959795E0
:1075D0008795EDD380918F0190919001A0919101B9
:1075E000B09192010296A11DB11D60CE843611F5B5
:1075F00080918F0190919001A0919101B0919201A1
:10760000B695A79597958795CAD38DDD80918F0103
:1076100090919001A0919101B09192010296A11DCB
:10762000B11D80938F0190939001A0939101B0932D
:10763000920103C08B3109F0E4CE83E08093E9002E
:107640009091E8008091E8008E778093E80095FDA6
:1076500011C08091E80080FD04C08EB38111F9CF84
:1076600015C08091E8008E778093E80003C08EB348
:10767000882361F08091E80080FFF9CF84E0809357
:10768000E9008091E8008B778093E800DF91CF914B
:107690001F910F91FF90EF90DF90CF90BF90AF9030
:1076A0009F908F90089594B714BE80916000886178
:1076B000809360001092600010928E0191FD0BC0CB
:1076C000E0E0F0E085919491019629F0E0918C0141
:1076D000F0918D0109953EDD6E9A769A789411E0CD
:1076E000C0E0D0E0E12CF12C80910001882319F159
:1076F00085DD3ED3DF5F11F4C10F769ACD1301C053
:107700007698CF3F59F0C1110AC0113041F08091F5
:107710008E018F5F80938E0111E001C01FEF809179
:107720008E01843108F3F701859194910196E1F27D
:1077300010920001D9CF8091E00081608093E00039
:107740009CE088E10FB6F894A895809360000FBE86
:1077500090936000FFCF292F30E02230310559F09F
:107760002330310569F021303105C1F482E190E028
:1077700022E731E017C08EE390E024E331E012C04D
:10778000811106C08091300190E020E331E00AC011
:107790008091080190E028E031E004C080E090E0B2
:1077A00020E030E0FA013183208308958093E900DE
:1077B000EBEEF0E0808181608083EDEEF0E01082FE
:1077C0006093EC0040838091EE00881F8827881F1B
:1077D00008958091950187FF0FC08091E80082FD98
:1077E00004C08EB38111F9CF10C08091E8008B776F
:1077F0000AC08EB3882349F08091E80080FFF9CF5A
:107800008091E8008E778093E80008954DD054D0A1
:107810008091D800982F9F779093D80080688093AC
:10782000D8008AE482BF80E189BD89B5826089BDC4
:1078300009B400FEFDCF8091D8008F7D8093D800E1
:107840001EBA109293018091E0008B7F8093E0003C
:107850008091D80081608093D80042E060E080E0B1
:10786000A5DF8091E1008E7F8093E1008091E200AE
:1078700081608093E2008091E20088608093E20062
:107880008091E0008E7F8093E0008091D80080613D
:107890008093D8000895E7EDF0E0808181608083D7
:1078A00081E080939401B2CFE8EDF0E080818E7F9B
:1078B00080831092E20008951092DA001092E100A5
:1078C00008951F920F920FB60F9211242F933F939A
:1078D0004F935F936F937F938F939F93AF93BF93D8
:1078E000EF93FF938091DA0080FF13C08091D8005E
:1078F00080FF0FC08091DA008E7F8093DA00809144
:10790000D90080FF04C081E08EBB99D102C01EBAAD
:1079100096D18091E10080FF1CC08091E20080FF41
:1079200018C08091E1008E7F8093E1008091E20099
:107930008E7F8093E2008091E20080618093E2007C
:107940008091D80080628093D80019BC85E08EBBFE
:1079500076D18091E10084FF2DC08091E20084FF08
:1079600029C080E189BD89B5826089BD09B400FE66
:10797000FDCF8091D8008F7D8093D8008091E10069
:107980008F7E8093E1008091E2008F7E8093E20001
:107990008091E20081608093E200809193018111E7
:1079A00006C08091E30087FD02C081E001C084E051
:1079B0008EBB45D18091E10083FF21C08091E20020
:1079C00083FF1DC08091E100877F8093E10082E00A
:1079D0008EBB109293018091E1008E7F8093E10035
:1079E0008091E2008E7F8093E2008091E2008061CE
:1079F0008093E20042E060E080E0D8DE20D1809118
:107A0000E10082FF0AC08091E20082FF06C08091FF
:107A1000E1008B7F8093E10012D1FF91EF91BF9144
:107A2000AF919F918F917F916F915F914F913F9116
:107A30002F910F900FBE0F901F9018950F931F93CB
:107A4000CF93DF9300D0CDB7DEB7E5E9F1E08091C9
:107A5000F100819341E0ED39F407C9F78091950178
:107A600090919601492F50E04A30510508F0DEC050
:107A7000FA01EA5AF74C8DC1803809F4C8C082383F
:107A800009F0D4C08091990187708093E9008091BA
:107A9000EB001092E9009091E800977F9093E80046
:107AA00085FB882780F98093F1001092F10088C04F
:107AB000282F2D7F09F0BAC0823009F0A8C080912C
:107AC0009701811127C080919901877009F49FC0A7
:107AD0008093E9002091EB0020FF1CC0933021F43B
:107AE0008091EB00806214C09091EB0090619093C4
:107AF000EB0021E030E0A90102C0440F551F8A9538
:107B0000E2F74093EA001092EA008091EB0088606F
:107B10008093EB001092E9008091E800877F53C0CA
:107B2000811184C0109197011F770FB7F89480914D
:107B3000E800877F8093E8004CDE8091E80080FFBA
:107B4000FCCF111102C082E001C083E08EBB8091A6
:107B5000E3008078182B1093E3008091E3008068A5
:107B60008093E3000FBF53C08058823008F05EC09E
:107B7000AE014F5F5F4F60919901809197019091A5
:107B80009801E9DDBC01892B09F441C09091E8001E
:107B9000977F9093E80089819A8152D08091E80084
:107BA0008B778093E80033C0803809F03FC0809124
:107BB000E800877F8093E800809193018093F10033
:107BC0008091E8008E778093E80003DE20C0811169
:107BD0002DC0809197019091980199270297BCF44C
:107BE0008091E800877F8093E800809197018093DF
:107BF0009301EFDD80919301811106C08091E30034
:107C000087FD02C081E001C084E08EBBBFDA8091B5
:107C1000E80083FF0DC08091EB0080628093EB0051
:107C20008091E800877F8093E80002C0BBDAEFCF45
:107C30000F900F90DF91CF911F910F9108950895AC
:107C400020919B0130919C012617370748F0611560
:107C5000710539F42091E8002E772093E80001C0E7
:107C6000B90140E061157105A1F12EB3222309F499
:107C700040C0253009F43FC02091E80023FD37C003
:107C80002091E80022FD2DC02091E80020FFEACFDE
:107C90004091F3002091F20030E0342BFC01CF0141
:107CA0006115710559F02830310540F481918093B8
:107CB000F100615071092F5F3F4FF1CF41E0283053
:107CC000310509F040E02091E8002E772093E8008C
:107CD000C9CF4111CACF05C08EB3882351F085307A
:107CE00051F08091E80082FFF7CF80E0089581E0B5
:107CF000089582E0089583E008956115710529F4DF
:107D00002091E8002B772093E8006115710521F19F
:107D10002EB3222349F1253049F12091E80023FDBB
:107D200021C02091E80022FFF0CF4091F300209184
:107D3000F20030E0342B232B19F301962091F1004F
:107D4000FC01319720836150710979F7D9CF8EB347
:107D5000882351F0853051F08091E80080FFF7CF03
:107D600080E0089581E0089582E0089583E0089519
:107D7000CF938EB3882359F0C091E900C770109259
:107D8000E9008091E80083FD59DEC093E900CF91BE
:107D90000895EE0FFF1F0590F491E02D0994F999D5
:107DA000FECF92BD81BDF89A992780B50895262F00
:107DB000F999FECF1FBA92BD81BD20BD0FB6F894D0
:0E7DC000FA9AF99A0FBE01960895F894FFCF33
:107DCE00010000000000000826034100560052008A
:107DDE002000430044004300200042006F006F006B
:107DEE0074006C006F00610064006500720000009A
:107DFE000403090409023E00020100803209040056
:107E0E0000010202010005240010010424020405F1
:107E1E00240600010705820308000209040100027E
:107E2E000A00000007050402100000070583021077
:107E3E00000012011001020000089A230100010047
:0C7E4E00000100014C5546414344430034
:040000030000700089
:00000001FF
