:100000000C94D7000C94FF000C94FF000C94FF009C
:100010000C94FF000C94FF000C94FF000C94FF0064
:100020000C94FF000C94FF000C947E080C94E708DD
:100030000C94FF000C94FF000C94FF000C94FF0044
:100040000C94FF000C948B0C0C94FF000C94FF009C
:100050000C94FF000C94FF000C94FF000C94290BEF
:100060000C94FF000C94FF000C94FF000C94FF0014
:100070000C94FF000C94FF000C94FF000C94FF0004
:100080000C94FF000C94FF000C94FF000C94FF00F4
:100090000C94730B0C94FF000C94FF000C94FF0065
:1000A0000C94FF000C94FF000C94FF000763423691
:1000B000B79BD8A71A39685618AEBAAB558C1D3CF9
:1000C000B7CC5763BD6DEDFD753EF6177231BF00BD
:1000D0000000803F080B000202020000090400003B
:1000E00001020200000524001001052401010104A1
:1000F00024020605240600010705810310004009BB
:10010000040100020A000000070502024000000787
:100110000583024000000403090412010002EF02FB
:1001200001409A23018000010102030141646166DC
:1001300072756974003332753420427265616B6F79
:1001400075740000000000240027002A002D0030F4
:100150000000000000250028002B002E00310004C4
:10016000040404040304050202020204030202025E
:100170000206060606060604040202020404080239
:10018000011040804010204080408008020401801F
:1001900040201002011080102040400000000200AA
:1001A000090F0000030401000C000000150D1124CC
:1001B0001FBECFEFDAE0DEBFCDBF15E0A0E0B1E0BB
:1001C000E2EFF9E302C005900D92AC3EB107D9F71A
:1001D00028E0ACEEB5E001C01D92AF31B207E1F707
:1001E00010E0C7EDD0E004C02197FE010E94F11C91
:1001F000C63DD107C9F70E942C0E0C94F71C0C9435
:1002000000009091D2068091D1062FEF3FEF981712
:1002100048F4E92FF0E0EF54F94F208130E09F5F80
:100220009093D206C90108959091D2068091D1068B
:100230002FEF3FEF981748F4E92FF0E0EF54F94F14
:10024000208130E09F5F9093D206C901089590917C
:10025000B0069111FCCF282F91E09093B0069093B7
:10026000AF063FEF3093AE061092AD06380F3093D5
:10027000AC069093AB069091AB0690659093AB065D
:100280009091AA069130F9F41092AA069091AB06CB
:100290009093BB0095EC9093BC009091B006913088
:1002A000E1F39091AD06981710F42091AD06AAE8FD
:1002B000B6E0E1EBF6E080E0821307C01092D206D0
:1002C0008093D106089595EEE6CF9D9191938F5F2F
:1002D000F3CF982F2091890681E0213208F03FC0AA
:1002E0008091B0068111FCCF8091880632E0309376
:1002F000B0069093AF069FEF9093AE061092AD06B6
:100300002093AC06A8E6B6E0EAE8F6E090E0291310
:100310002DC01092AB069091AB06880F892B80936D
:10032000AB068091AA06813029F51092AA06809129
:10033000AB068093BB0085EC8093BC008091B00637
:100340008230E1F38091AE068F3FB1F08091AE062E
:100350008032A1F08091AE06803391F084E010925B
:100360006706109289061092660608953D913193B2
:100370009F5FCDCF85EEE0CF80E0F1CF82E0EFCF81
:1003800083E0EDCF91E0909366068093880610920B
:100390006706109289060895282F30E0F901E55686
:1003A000FE4F9491F901E358FE4F8491215A3E4F3C
:1003B000F9012491222309F42DC09923E9F09150E9
:1003C0009F30D0F4E92FF0E0E851FE4F0C94F11C7F
:1003D00013021702F7010B020F02FC01FC01FC01E2
:1003E0001A022002240228022E02FC0132029091FD
:1003F00080009F7790938000E22FF0E0EE0FFF1FC8
:10040000EF5AFE4FA591B4919FB7F894EC918E2BC3
:100410008C939FBF0895909180009F7DEBCF90912A
:100420008000977FE7CF94B59F7794BDE5CF94B5D3
:100430009F7DFBCF909190009F7790939000DCCFB1
:10044000909190009F7DF9CF90919000977FF5CF8C
:100450009091C0009F779093C000CECF9091C00044
:100460009F7DF9CF9091C200977F9093C200C4CF37
:1004700090E0FC01E358FE4F2491815A9E4FFC010D
:100480008491882399F090E0880F991FFC01ED5B1F
:10049000FE4FA591B491FC01EF5AFE4F85919491C6
:1004A0008FB7F894EC91E22BEC938FBF0895909165
:1004B0006506911103C08FEF9FEF08954FB7F89431
:1004C00092E09093E9009091F200292F30E012160B
:1004D000130614F421E030E0232B29F084E6809306
:1004E00064068091F100992339F02091F2002111E6
:1004F00003C02BE62093E8004FBF9923E1F290E080
:1005000008952FB7F89483E08093E9009091E80074
:10051000892F807295FF04C09091F20080E4891BBE
:100520002FBF089580915C0681110DC082E08093F9
:10053000580684E08093590610925B0610925A0682
:1005400081E080935C0688E596E008954091360648
:1005500050913706209134063091350642175307E3
:10056000B4F49091E8009570E1F39091E80092FD69
:1005700019C08093F100809136069091370601965C
:100580008F739927892B19F48EEF8093E80080915F
:10059000360690913706019690933706809336067B
:1005A00081E0089580E00895EF92FF920F931F93EA
:1005B000CF93DF93F82E192FE62E042F81E0860FBC
:1005C000880F0E94A60283E00E94A602CF2DD12FA1
:1005D000EC0EFD2EF11CCE15DF05B9F007FF13C0A0
:1005E000FE0184910E94A602182F80E00E94A602BC
:1005F000812321968111EFCFDF91CF911F910F9130
:10060000FF90EF9008958881EDCF81E0F5CFDF92E4
:10061000EF92FF920F931F93CF93DF93D82E8A010F
:10062000EB017B01E40EF51ECE15DF0559F0D7FE78
:1006300012C0FE0184910E94A60221968111F4CF7E
:100640000FEF1FEFC801DF91CF911F910F91FF9026
:10065000EF90DF9008958881EECF0F931F93CF9393
:10066000DF931F92CDB7DEB782E0898342E450E08A
:1006700064ED70E080E80E9407030E949202DC01B2
:1006800012960D911C910115110589F0D801ED917B
:10069000FC910280F381E02DBE016F5F7F4FC801A6
:1006A000099597FD04C0F80100851185ECCF89817B
:1006B0000F90DF91CF911F910F910895CF93DF930A
:1006C0001F92CDB7DEB76983DC01ED91FC9102800A
:1006D000F381E02D41E050E0BE016F5F7F4F09954F
:1006E0000F90DF91CF91089583E08093E90080918E
:1006F000F200882319F08AE38093E80008950E94AD
:10070000810290E00895FC018485958597FD05C0E0
:100710002FEF3FEF3587248708950C945702CF932E
:10072000DF93EC018C859D8597FF04C00E945702E2
:100730009D878C878C859D85DF91CF910895FC01E5
:100740008485958597FD0BC09FB7F89482E08093D0
:10075000E9008091F2009FBF90E0019608959FB755
:10076000F89482E08093E9008091F2009FBF90E0CE
:1007700008953FB7F8948091300690913106A0918A
:100780003206B091330626B5A89B05C02F3F19F05D
:100790000196A11DB11D3FBFBA2FA92F982F882701
:1007A000BC01CD01620F711D811D911D42E0660FDC
:1007B000771F881F991F4A95D1F708958F929F92AE
:1007C000AF92BF92CF92DF92EF92FF924B015C010A
:1007D0000E94B9036B017C010E94B9036C197D0969
:1007E0008E099F09683E734081059105A8F321E0B9
:1007F000821A9108A108B10888EEC80E83E0D81EBD
:10080000E11CF11C81149104A104B10429F7FF90AB
:10081000EF90DF90CF90BF90AF909F908F90089512
:100820008F929F92AF92BF92CF92DF92EF92FF9200
:100830000F931F93CF93DF936C017B018A0180910B
:100840000B01882309F45BC080916506882309F4B5
:1008500056C080913A0680FF05C08091E00082601A
:100860008093E000E801B12C8AEFA82E93E0892E56
:100870002AE3922E209711F4BB20D9F10E94810225
:1008800081110AC0AA94AA20D1F161E070E080E051
:1008900090E00E94DE03EECF8C171D0611F00CF0E5
:1008A0008C2F9FB7F8948092E9002091E80025FDF5
:1008B00002C09FBFDFCF282F30E0C21BD30BF70150
:1008C000815020F041914093F100FACFE20EF31EE7
:1008D000BB2021F09092E800B12CEBCF8091E80092
:1008E00085FDE7CF9092E800BB24B394209709F3ED
:1008F000F3CF84E680933906101611063CF081E0B0
:1009000090E0F6019383828310E000E0C801DF915C
:10091000CF911F910F91FF90EF90DF90CF90BF90FC
:10092000AF909F908F90089585ED8093BC0080914B
:10093000BC0084FDFCCF1092B0060895613298F49B
:100940002091B006243089F460930C06282FACEE79
:10095000B5E0FC018E2F821B861710F080E0089511
:1009600081918D93F7CF81E0089582E008950895F5
:10097000E091D2068091D106E81730F4F0E0EF5410
:10098000F94F808190E008958FEF9FEF0895809157
:10099000D1069091D206891B990B0895CF92DF92D0
:1009A000EF92FF920F931F93CF93DF937C01CB01C4
:1009B0008A0120916606222389F0EB016B01C40EA7
:1009C000D51ECC15DD0569F06991D701ED91FC913B
:1009D0000190F081E02DC7010995F3CF642F0E94AB
:1009E0009E04C801DF91CF911F910F91FF90EF906E
:1009F000DF90CF900895CF93DF931F92CDB7DEB7EE
:100A00006983209166062223F9F02091890620321D
:100A100058F021E030E0FC013383228390E080E055
:100A20000F90DF91CF91089580916706E82FF0E055
:100A3000E859F94F998190838F5F8093670680937F
:100A4000890681E090E0ECCF61E0CE0101960E9442
:100A50009E04F7CF682F83E297E00C94FB0490E0AC
:100A600080E00895CF92DF92EF92FF92CF93DF93D1
:100A7000EC01288139812130310559F030F12230E3
:100A8000310591F02330310559F160E070E0CB0180
:100A900004C06A857B858C859D85DF91CF91FF9011
:100AA000EF90DF90CF90089520E034E244E759E4DE
:100AB0006A817B818C819D810E94201A2A853B85D9
:100AC0004C855D850E944F1CE8CF2A853B854C856F
:100AD0005D856A897B898C899D890E94AE19DDCFED
:100AE0002A853B854C855D856A897B898C899D89B2
:100AF0000E94AE196B017C0120E034E244E759E426
:100B00006A817B818C819D810E94201A9B01AC01AE
:100B1000C701B6010E94201AC0CF4F925F926F9218
:100B20007F928F929F92AF92BF92CF92DF92EF927D
:100B3000FF92CF93DF9300D000D0CDB7DEB76B012B
:100B40007C0129833A834B835C830E94D41B181653
:100B50000CF03DC029813A814B815C81C701B6010F
:100B60000E94AE194B015C0120E030E044EB53E4FD
:100B70000E94AE192B013C0120E030E0A9010E9447
:100B8000D41B181624F077FA709477F8709420E04C
:100B900030E0A901C501B4010E94D41B181624F04D
:100BA000B7FAB094B7F8B094A5019401C301B201AB
:100BB0000E941B1A87FF48C020E030E044EB53E45A
:100BC000C701B6010E94AE196B017C01C3CF298118
:100BD0003A814B815C81C701B6010E94AE194B017D
:100BE0005C0120E030E044EB53E40E94AF192B019C
:100BF0003C0120E030E0A9010E94D41B181624F02B
:100C000077FA709477F8709420E030E0A901C5017C
:100C1000B4010E94D41B181624F0B7FAB094B7F8A8
:100C2000B094A5019401C301B2010E941B1A87FF71
:100C30000BC020E030E044EB53E4C701B6010E9452
:100C4000AF196B017C01C3CFC701B6010F900F90A4
:100C50000F900F90DF91CF91FF90EF90DF90CF90AA
:100C6000BF90AF909F908F907F906F905F904F90CC
:100C7000089588E20E94C20190E080E00E942A0567
:100C800080E00E94690181E090E00E9427010E94BB
:100C90001401803A910569F70895FC010190002044
:100CA000E9F73197AF01481B590BBC0183ED96E082
:100CB0000C9410048F929F92AF92BF920F931F9348
:100CC000CF93DF93CDB7DEB7A1970FB6F894DEBF11
:100CD0000FBECDBF19A2423008F44AE08E010F5D6D
:100CE0001F4F842E912CB12CA12CA50194010E94A0
:100CF000CF1CE62FB901CA01EA30F4F4E05DD80157
:100D0000EE938D01232B242B252B79F790E080E0A7
:100D1000109719F0CD010E944D06A1960FB6F894D8
:100D2000DEBF0FBECDBFDF91CF911F910F91BF905E
:100D3000AF909F908F900895E95CE1CF0C944D06A1
:100D400087E391E00C944D06CF93DF930E944D060C
:100D5000EC010E94A0068C0F9D1FDF91CF9108959A
:100D60004F925F926F927F928F929F92AF92BF92BB
:100D7000CF92DF92EF92FF920F931F93CF936B016D
:100D80007C01742EAC019B010E94BC1C882399F04D
:100D90008AE391E0CF911F910F91FF90EF90DF9048
:100DA000CF90BF90AF909F908F907F906F905F900B
:100DB0004F900C944D0646015701E894B7F82FEF79
:100DC0003FEF4FE75FE7C501B4010E94BC1C8111F2
:100DD0000DC02FEF3FEF4FE75FE7C501B4010E9461
:100DE0001B1A18161CF48EE391E0D4CF2FEF3FEFBF
:100DF0004FE75FE4C701B6010E94D41B18161CF42C
:100E000082E491E0C7CF2FEF3FEF4FE75FECC701E0
:100E1000B6010E941B1A87FDF3CF20E030E0A90144
:100E2000C701B6010E941B1A10E000E087FF0AC04C
:100E30006DE283ED96E00E945E038C01F7FAF09478
:100E4000F7F8F094C0E060E070E080E09FE37C168B
:100E500041F020E030E040E251E40E94201ACF5FF0
:100E6000F6CFA70196010E94AF192B013C010E9409
:100E7000CC1A4B015C014AE00E945A067C01E00E4C
:100E8000F11ECC23C1F1C501B4010E94FB1A9B01E4
:100E9000AC01C301B2010E94AE194B015C016EE2CC
:100EA00083ED96E00E945E03E80EF91EC15018F132
:100EB00020E030E040E251E4C501B4010E944F1C43
:100EC0002B013C010E94CC1A4B01B12CA12C4AE011
:100ED000C501B4010E945A06E80EF91EC501B4010D
:100EE0000E94FB1A9B01AC01C301B2010E94AE1922
:100EF0004B015C01DBCFC701CF911F910F91FF9098
:100F0000EF90DF90CF90BF90AF909F908F907F90A9
:100F10006F905F904F900895BC01990F880B990BCB
:100F20004AE00C945A06CF92DF92EF92FF920F9311
:100F30001F93CF93DF9388E20E94C20185E390E084
:100F40000E942A0580E00E94690181E090E00E94F1
:100F500027010E941401EC0186E491E00E949E06A4
:100F60006C2F70E090E080E042E00E945A0684E539
:100F700091E00E949E068E0186E0159507958A9560
:100F8000E1F703701127C8010E948C078AE591E000
:100F90000E949E068C2F8F73C82ED12C94E0D5947E
:100FA000C7949A95E1F7C6010E948C0780E691E00C
:100FB0000E949E068C2F8F70E82EF12CF594E794FA
:100FC000F594E794C7010E948C07C3700C0F0C0DB9
:100FD00086E691E00E949E066C2F70E090E080E033
:100FE0004AE00E945A060E94A006802F8E0DDF91D3
:100FF000CF911F910F91FF90EF90DF90CF900895C8
:101000004F925F926F927F928F929F92AF92BF9218
:10101000CF92DF92EF92FF92CF93DF93EC012A0100
:101020003B010E94B9036B017C018A8D9B8DAC8DC5
:10103000BD8DA7019601281B390B4A0B5B0BCA011A
:10104000B9010E94FD1A9B01AC012E8B3F8B488F8A
:10105000598FCA8EDB8EEC8EFD8ECA84DB84EC84C5
:10106000FD84CE86DF86E88AF98A4A8A5B8A6C8AA2
:101070007D8A6A817B818C819D810E94201A9B01DF
:10108000AC012E833F834887598760E070E080E899
:101090009FEB0E94201A0E949A1A4B015C01AC013E
:1010A0009B0160E070E080E89FE30E94AE19A3011D
:1010B00092010E944F1C2B013C01A5019401C70124
:1010C000B6010E944F1C9B01AC01C301B2010E94FA
:1010D000AF196A877B878C879D87CE01DF91CF917F
:1010E000FF90EF90DF90CF90BF90AF909F908F9048
:1010F0007F906F905F904F900C9432051F920F92EB
:101100000FB60F9211248F939F938091E1009091DD
:10111000E100937F9093E10083FF0FC01092E900FC
:1011200091E09093EB001092EC0092E39093ED002D
:101130001092650698E09093F00082FF1CC093E047
:101140009093E9009091F200992319F09AE390931B
:10115000E80090913906992329F090913906915031
:101160009093390690916406992329F09091640632
:1011700091509093640684FF18C08091E2008E7EA7
:1011800081608093E2008091E1008F7E8093E10096
:1011900080913A068E7E806180933A069F918F916E
:1011A0000F900FBE0F901F90189580FFF7CF809182
:1011B000E2008E7E80618093E2008091E1008E7E6D
:1011C0008093E10080913A068E7E8160E5CF1F9288
:1011D0000F920FB60F921124CF92DF92EF92FF92EF
:1011E0000F931F932F933F934F935F936F937F932F
:1011F0008F939F93AF93BF93EF93FF93CF93DF931F
:10120000CDB7DEB76C97DEBFCDBF1092E9008091FD
:10121000E80083FF2FC089E0FE017596EE2EDF2ED9
:10122000815029F09091F10090833196F9CF84E6B6
:101230008093640682EF8093E8008D8987FF39C030
:101240009091E80090FFFCCF982F907609F033C181
:101250009E894F89588D2F89F88C911131C0803823
:1012600061F580913B068093F1001092F1008EEFC2
:101270008093E8006C960FB6F894DEBF0FBECDBF2A
:10128000DF91CF91FF91EF91BF91AF919F918F919E
:101290007F916F915F914F913F912F911F910F918E
:1012A000FF90EF90DF90CF900F900FBE0F901F90A8
:1012B00018959EEF9093E800C7CF1092F100D5CF1C
:1012C000913059F48111D3CF4130510581F680918D
:1012D0003B068D7F80933B06CACF933049F4811142
:1012E000C6CF4130510519F680913B068260F2CF9E
:1012F000953041F48091E80080FFFCCF2068209376
:10130000E300B5CF963009F0A8C00B8D1C8D22E00C
:101310001092E9001092370610923606F2122EC093
:1013200010923506109234060E942D031F8299E018
:101330009983FA8291E09E8390EA98879AEF998741
:101340002091360630913706275F3F4F3C832B8331
:101350008D831092E9001092370610923606109392
:1013600035060093340649E050E0BE016F5F7F4FC1
:1013700080E00E9407030E942D0379CF1093350669
:10138000009334060E949202DC0112960D911C918A
:101390000115110509F457C1D801ED91FC910480A4
:1013A000F581E02D6E2D7D2DC8010995009709F07E
:1013B00045C1F80100851185EBCFF3E0FF120EC0A7
:1013C0008F89882309F440C0823061F440E86DE0E1
:1013D00085E391E00E94D402811149CF81E280939C
:1013E000EB0048CF813029F440E868E08CE291E0DE
:1013F000F1CF833099F70E949202DC011296ED90B2
:10140000FC908E010F5F1F4F6801E114F10479F029
:10141000D701ED91FC910680F781E02DB801C7015D
:101420000995080F111DF701E084F184EECFD80172
:101430001C92F60101900020E9F73197BF016C1969
:101440007D0940E0C601C6CF66E171E0FB01449131
:1014500050E080E80E9407030ACF973009F4BECF1E
:10146000983021F481E08093F10001CF993009F0A8
:10147000FECE837009F0B2CFEDE0F1E081E031E023
:1014800096E32191222371F08093E9003093EB00E1
:10149000DF0111972C912093EC009093ED008F5F6A
:1014A000873079F78EE78093EA001092EA008F89FF
:1014B00080936506DCCE8B8D9C8D1092E900109296
:1014C0003706109236069093350680933406898D40
:1014D00081119AC08E899D89913A49F4813209F02F
:1014E0007DCF47E050E064E071E080E0B3CF91321F
:1014F00009F074CF833269F48F89988DB0E0A0E051
:101500008093000190930101A0930201B093030125
:10151000AECE8032A9F48091E80082FFFCCF88E053
:10152000E4E0F1E0815029F09091F1009083319650
:10153000F9CF84E6809364068BEF8093E80097CE22
:10154000823209F094CE8F8980930B01EEEFFFE792
:10155000859194918B3F9C4D51F1E0E0F8E08091B2
:10156000040190910501A0910601B0910701803B13
:101570009440A105B105F1F480910B0180FD1AC0E2
:10158000EE3F8AE0F80789F587E797E79183808344
:10159000809160008093380688E19BE00FB6F89454
:1015A000A895809360000FBE9093600060CEEEEF30
:1015B000FAE0D5CF808191818737974709F057CEE0
:1015C000A8958091600088618093600080913806C2
:1015D00080936000EE3F2AE0F20789F08091FE0AD6
:1015E0009091FF0A9183808342CE808191818737D9
:1015F000980751F29093FF0A8093FE0AC5CF10928C
:10160000FF0A1092FE0A33CE0E949202DC0112966B
:101610000D911C910115110509F4E0CED801ED9151
:10162000FC910190F081E02D6E2D7D2DC801099572
:1016300081111DCEF80100851185ECCF1816190611
:101640000CF415CECBCEF1E0FF12B7CE6AE171E01B
:10165000FDCE1F920F920FB60F9211242F933F933E
:101660008F939F93AF93BF9380913C0690913D06DB
:10167000A0913E06B0913F0630912F0623E0230F44
:101680002D3758F50196A11DB11D20932F0680938B
:101690003C0690933D06A0933E06B0933F06809192
:1016A000300690913106A0913206B0913306019632
:1016B000A11DB11D8093300690933106A093320690
:1016C000B0933306BF91AF919F918F913F912F912E
:1016D0000F900FBE0F901F90189526E8230F0296CB
:1016E000A11DB11DD2CF1F920F920FB60F921124E0
:1016F0002F933F934F935F936F937F938F939F931A
:10170000AF93BF93EF93FF938091B900887F8036AA
:1017100009F44AC0F0F5883209F4A5C018F5803103
:1017200009F499C0B8F4882309F4F2C0883009F4A8
:1017300092C0FF91EF91BF91AF919F918F917F9157
:101740006F915F914F913F912F910F900FBE0F902E
:101750001F901895883109F486C0803251F7809324
:10176000AE0614C0803409F49BC040F48033B9F352
:101770008833F9F68093AE0685ECAEC0803509F467
:1017800083C0883509F494C0883499F60E94940483
:10179000D0CF883909F48AC038F5883729F050F459
:1017A000883611F0803729F683E08093B0061092D6
:1017B0002E0655C0883809F479C0803919F0803870
:1017C00009F0B7CF80912E06803208F06FC0E0910B
:1017D0002E0681E08E0F80932E068091BB00F0E0F4
:1017E000E25FF94F80833BC0803B39F0D0F4803A10
:1017F00009F477C0883A09F09CCF84E08093B00662
:1018000010920D0610920C06F0E0E0E00995809130
:101810000C0681110FC081E080930C061092EC053C
:1018200009C0803C09F4A8CF883C09F4A5CF883BC7
:1018300009F07FCFE0910D0681E08E0F80930D06B9
:10184000F0E0E451FA4F80818093BB0090910D0647
:1018500080910C0629C08091AB068093BB0085EC7B
:101860008093BC0066CF9091AD068091AC0698172E
:1018700058F5E091AD0681E08E0F8093AD06F0E063
:10188000E657F94F8081E9CFE091AD0681E08E0FF8
:101890008093AD068091BB00F0E0E657F94F80835E
:1018A0009091AD068091AC069817C8F285E8D8CF24
:1018B000E091AD0681E08E0F8093AD068091BB0074
:1018C000F0E0E657F94F80838091AF0681115ECF3B
:1018D00081E08093AA0684EA8093BC001092B0064F
:1018E00028CF80912E06803230F4E0912E06F0E071
:1018F000E25FF94F10820E94940460912E0670E01E
:101900008EE096E0F0E0E0E0099510922E0634CFEC
:101910001092AE063BCF78941F920F920FB60F92A3
:101920001124CF92DF92EF92FF920F931F932F9388
:101930003F934F935F936F937F938F939F93AF9357
:10194000BF93CF93EF93FF930E94B9036B017C0188
:1019500085B1806E85B9469ACFE00E94B903DC015B
:10196000CB018C199D09AE09BF0900914406109165
:101970004506209146063091470680179107A20739
:10198000B30710F04698C7700091480610914906B9
:1019900020914A0630914B0680179107A207B307A2
:1019A00010F02E98CB7000914C0610914D062091AE
:1019B0004E0630914F0680179107A207B30710F02B
:1019C0002D98CD700091500610915106209152062D
:1019D0003091530680179107A207B30710F02F9894
:1019E000CE70803D9740A105B10528F085B18F717B
:1019F00085B9469802C0C111B0CFFF91EF91CF9148
:101A0000BF91AF919F918F917F916F915F914F9116
:101A10003F912F911F910F91FF90EF90DF90CF900A
:101A20000F900FBE0F901F901895CF92DF92EF92FC
:101A3000FF92CF93DF93E3EDF6E01382128288EEFC
:101A400093E0A0E0B0E084839583A683B78327E189
:101A500031E0318320832FEF3FEF35872487E3E2A6
:101A6000F7E01382128284839583A683B78389E289
:101A700091E091838083E3E1F8E010821182128289
:101A8000138214821582168217821086118612869E
:101A90001386E7E0F8E0108211821282138214822A
:101AA0001582168217821086118612861386EBEF36
:101AB000F7E010821182128213821482158216823C
:101AC00017821086118612861386EFEEF7E01082D9
:101AD0001182128213821482158216821782108656
:101AE000118612861386E3EEF7E0108211821282CD
:101AF000138214821582168217821086118612862E
:101B00001386C5ECD7E0198218828CEBC82E8CE6C0
:101B1000D82E8BE1E82E88E4F82ECA82DB82EC8294
:101B2000FD821A861B861C861D861E861F86188AC5
:101B3000198A1A8A1B8A1C8A1D8A0E94B9036A8F15
:101B40007B8F8C8F9D8FC7EAD7E019821882CA825B
:101B5000DB82EC82FD821A861B861C861D861E8611
:101B60001F86188A198A1A8A1B8A1C8A1D8A0E9453
:101B7000B9036A8F7B8F8C8F9D8FC9E8D7E019825C
:101B80001882CA82DB82EC82FD821A861B861C8642
:101B90001D861E861F86188A198A1A8A1B8A1C8A25
:101BA0001D8A0E94B9036A8F7B8F8C8F9D8FCBE635
:101BB000D7E019821882CA82DB82EC82FD821A8603
:101BC0001B861C861D861E861F86188A198A1A8AFD
:101BD0001B8A1C8A1D8A0E94B9036A8F7B8F8C8F97
:101BE0009D8FCDE4D7E019821882CA82DB82EC8215
:101BF000FD821A861B861C861D861E861F86188AF5
:101C0000198A1A8A1B8A1C8A1D8A0E94B9036A8F44
:101C10007B8F8C8F9D8FCFE2D7E019821882CA828A
:101C2000DB82EC82FD821A861B861C861D861E8640
:101C30001F86188A198A1A8A1B8A1C8A1D8A0E9482
:101C4000B9036A8F7B8F8C8F9D8FDF91CF91FF902F
:101C5000EF90DF90CF900895CF93DF93CDB7DEB7AD
:101C6000C255D1090FB6F894DEBF0FBECDBF789430
:101C700084B5826084BD84B5816084BD85B5826091
:101C800085BD85B5816085BD80916E008160809342
:101C90006E001092810080918100826080938100AB
:101CA00080918100816080938100809180008160BB
:101CB0008093800080919100826080939100809158
:101CC0009100816080939100809190008160809369
:101CD00090008091C10084608093C1008091C10018
:101CE00082608093C1008091C10081608093C100B7
:101CF0008091C30081608093C3008091C0008260A6
:101D00008093C0008091C20081608093C200809166
:101D10007A00846080937A0080917A008260809358
:101D20007A0080917A00816080937A0080917A00B5
:101D3000806880937A001092650610923B0610929C
:101D40003A068091D70081608093D70080EA809323
:101D5000D80089B5806189BD89B5826089BD09B423
:101D600000FEFDCF61E070E080E090E00E94DE03C5
:101D70008091D8008F7C80618093D8008091E000B2
:101D8000807F8093E0008091E1008E7E8093E1006F
:101D90008DE08093E2001092800082E080938100C9
:101DA00010928500109284008FE39CE99093890043
:101DB00080938800B19A80916F00826080936F0059
:101DC0008091810088608093810088EE93E0A0E09C
:101DD000B0E08093500690935106A0935206B093C2
:101DE000530680934C0690934D06A0934E06B093F5
:101DF0004F068093480690934906A0934A06B093F5
:101E00004B068093440690934506A0934606B093F4
:101E1000470685B18F7185B9469887E00E943802E0
:101E200082E10E94380285E00E94380289E00E9427
:101E300038028AE00E9438028BE00E94380282E178
:101E40000E94CC0176981092D2061092D106109280
:101E50006706109289061092B00681E08093AF0663
:101E60001092AA0682E00E94CC0183E00E94CC017D
:101E70008091B9008E7F8093B9008091B9008D7FE9
:101E80008093B90088E48093B80085E48093BC0017
:101E90000E9439068FEF9FEF9093E0068093DF0654
:101EA00060ED77E080E090E00E94DE038CE691E058
:101EB0000E94A40688E20E94C2018FE390E00E9483
:101EC0002A0580E490E00E942A0581E00E946901D1
:101ED0000E94390688E20E94C2018EE390E00E94CF
:101EE0002A0590E080E00E942A0581E00E946901B5
:101EF00062E370E080E090E00E94DE0390E080E02A
:101F00000E9498198D8381E090E00E9498198E8339
:101F100082E090E00E9498198F8383E090E00E9415
:101F20009819888788E20E94C20187E090E00E94A9
:101F30002A0581E090E00E942A0581E00E94690163
:101F400088E20E94C20180E590E00E942A0580E0BC
:101F50000E94690184E090E00E9427010E94140120
:101F60008C010E94140120E0022B182B0E94140106
:101F70000E9414016801110FEE08FF08C982DA827D
:101F8000EB82FC8282E791E00E949E0640E1C7015D
:101F9000B6010E945A060E94A00688E20E94C20171
:101FA00087E090E00E942A0590E080E00E942A05E8
:101FB00081E00E9469018D819E81AF81B885C8163C
:101FC000D906EA06FB0609F44EC08DE791E00E94AF
:101FD000A40688E20E94C2018DE390E00E942A05D7
:101FE0008CE090E00E942A0581E00E9469010E9435
:101FF0003906812C912C54010EE010E0EE24E3947C
:10200000F12C0E9493078C3011F476996AC09FB727
:10201000F89440913C0650913D0660913E067091C7
:102020003F069FBF2A013B01481859086A087B08F0
:102030009801281B3109D70102C0AA0FBB1F2A959E
:10204000E2F7CD01092E000CAA0BBB0B481659066E
:102050006A067B0608F033C164E670E080E090E039
:102060000E94DE03CECF88E20E94C2018DE390E0A1
:102070000E942A0590E080E00E942A0581E00E94EB
:1020800069010E94390682EB91E00E94A4068EED60
:1020900091E00E94A40688E20E94C20185E590E0DA
:1020A0000E942A0508E010E0C8010E949819F82E45
:1020B000682F83E297E00E94FB046F2D70E090E0B0
:1020C00080E040E10E945A060E94A0060F5F1F4F69
:1020D0000E31110549F781E00E94690184E592E023
:1020E00057C0769888E20E94C2018DE390E00E947A
:1020F0002A0590E080E00E942A0581E00E946901A3
:102100000E943906FE0131967F0110E000E0D70100
:10211000DD907D01C8010E949819D81621F06D2D1F
:10212000C8010E94A0190F5F1F4F0430110579F7F5
:102130008AE092E00E94A40688E20E94C20185E53E
:1021400090E00E942A0580E00E94690186E190E00B
:102150000E94270108E010E00E941401F82EC80137
:102160000E949819F81621F06F2DC8010E94A0193D
:102170006F2D70E090E080E040E10E945A060E94DE
:10218000A0060F5F1F4F0E31110531F780E392E07B
:102190000E94A40688E20E94C20181E490E00E94AD
:1021A0002A0581E290E00E942A0581E00E946901EF
:1021B00088E20E94C20182E490E00E942A0584E045
:1021C00090E00E942A0581E00E94690188E20E9455
:1021D000C2018BE390E00E942A0588E090E00E9413
:1021E0002A0581E00E94690188E20E94C2018DE314
:1021F00090E00E942A058CE090E00E942A0581E090
:102200000E94690164E670E080E090E00E94DE03D5
:102210000E94390688E792E00E94A4060E94930774
:1022200088E20E94C20186E390E00E942A0580E0D5
:102230000E94690185E090E00E94270186E992E012
:102240000E949E060E941401182F682F70E090E0F3
:1022500080E042E00E945A0613FF04C082EA92E046
:102260000E949E0612FF04C08AEA92E00E949E0627
:1022700011FF04C082EB92E00E949E0610FF04C092
:102280008AEB92E00E949E060E9414010E941401B3
:102290000E94A00682EC92E00E949E060E94140119
:1022A00087309105C0F4FC01E85AFE4E0C94F11CF5
:1022B0006711841187118A118D11901193117699EC
:1022C00004C0769A4A015B01C7CE7698FBCF82EDB7
:1022D00092E00E94A40682E993E00E949E060E947A
:1022E00014018B30910530F5FC01E758FE4E0C943B
:1022F000F11C9611C611C911CC11CF11D211D511F3
:10230000D811DB11DE11E11182EE92E0E2CF83EF12
:1023100092E0DFCF80E193E0DCCF8BE293E0D9CF96
:1023200082E493E0D6CF86E693E0D3CF81EA93E0D0
:102330000E94A40688E20E94C2018DE390E00E9400
:102340002A0580E00E94690182E090E00E94270156
:102350008BE295E00E949E060E9414018F709927DF
:102360008D30910508F034C0FC01E754FE4E0C940A
:10237000F11CE41140194319461949194C194F1918
:102380005219551958195B195E1961198EEA93E0B3
:10239000CFCF83ED93E0CCCF84EF93E0C9CF80E142
:1023A00094E0C6CF84E394E0C3CF8AE594E0C0CF45
:1023B00087E794E0BDCF88EB94E0BACF83EE94E05A
:1023C000B7CF8CE095E0B4CF8CE395E00E94A406F3
:1023D00088E995E00E949E060E94140181309105D3
:1023E00009F472C78230910509F471C7892B21F471
:1023F00085EA95E00E94A40668EE73E080E090E034
:102400000E94DE0388E20E94C2018AE190E00E94FD
:102410002A0580E00E94690186E090E00E94270181
:10242000C0900F08D0901008E0901108F0901208AA
:102430000E9414018C010E94140160E0782F602B2F
:10244000712B072E000C880B990B0E94FD1A20E0BF
:1024500030E040E85DE30E944F1CA70196010E9416
:102460008D0560930F087093100880931108909366
:102470001208C0900708D0900808E0900908F09072
:102480000A080E9414018C010E94140160E0782F58
:10249000602B712B072E000C880B990B0E94FD1AE4
:1024A00020E030E040E85DE30E944F1CA701960168
:1024B0000E948D05609307087093080880930908AF
:1024C00090930A08C0900B08D0900C08E0900D087B
:1024D000F0900E080E9414018C010E94140160E02B
:1024E000782F602B712B072E000C880B990B0E9404
:1024F000FD1A20E030E040E85DE30E944F1CA70198
:1025000096010E948D0560930B0870930C088093D0
:102510000D0890930E088EEB95E00E949E06609148
:102520000708709108088091090890910A0842E014
:102530000E94B0068DED95E00E949E0660910B080A
:1025400070910C0880910D0890910E0842E00E9455
:10255000B0068DED95E00E949E0660910F08709187
:102560001008809111089091120842E00E94B00674
:102570000E94A00664E670E080E090E00E94DE0326
:10258000769A00E010E00E94B90363966CAF7DAFCD
:102590008EAF9FAF639788E20E94C20188E290E00D
:1025A0000E942A0580E00E94690186E090E00E9476
:1025B00027010E9414017C010E9414018A8F198E48
:1025C000698D7A8D6E297F29072E000C880B990B57
:1025D0000E94FD1A20E030E048EC52E40E94201AEC
:1025E00069877A878B879C870E9414017C010E94EF
:1025F00014018C8F1B8E6B8D7C8D6E297F29072E8D
:10260000000C880B990B0E94FD1A20E030E048EC8A
:1026100052E40E94201A6D877E878F87988B0E94D4
:1026200014017C010E9414018E8F1D8E6D8D7E8D94
:102630006E297F29072E000C880B990B0E94FD1A2A
:1026400020E030E048EC52E40E94201A6D8B7E8B33
:102650008F8B988F88E20E94C20180E290E00E94F6
:102660002A0580E00E94690188E090E00E9427012D
:102670000E9414017C010E94140188A31F8E6F8D9B
:1026800078A16E297F29072E000C880B990B0E94D8
:10269000FD1A20E030E040E858E30E944F1C2B0177
:1026A0003C010E9414017C010E9414018AA319A21A
:1026B00069A17AA16E297F29072E000C880B990B3E
:1026C0000E94FD1A20E030E040E858E30E944F1CD1
:1026D0004B015C010E9414017C010E9414018CA337
:1026E0001BA26BA17CA16E297F29072E000C880BF1
:1026F000990B0E94FD1A20E030E040E858E30E9468
:102700004F1C6B017C010E9414019A8B898B0E94E3
:1027100014018EA31DA26DA17EA1E989FA896E2BF9
:102720007F2B072E000C880B990B0E94FD1A20E0CE
:1027300030E040E858E30E944F1C698B7A8B8B8B0A
:102740009C8BA5019401C501B4010E944F1C6FA38D
:1027500078A789A79AA7A3019201C301B2010E9499
:102760004F1C6BA77CA78DA79EA7A7019601C5014B
:10277000B4010E944F1C6FA778AB89AB9AAB298933
:102780003A894B895C89C301B2010E944F1C6BAB33
:102790007CAB8DAB9EABA7019601C301B2010E9439
:1027A0004F1C6FAB78AF89AF9AAF29893A894B89B3
:1027B0005C89C501B4010E944F1C6BAF7CAF8DAF2B
:1027C0009EAFA7019601C701B6010E944F1C239638
:1027D0006CAF7DAF8EAF9FAF2397A5019401C3016E
:1027E000B2010E944F1C2B013C0129893A894B8977
:1027F0005C89C701B6010E944F1C27966CAF7DAF64
:102800008EAF9FAF27970E94B903698B7A8B8B8B12
:102810009C8B8091400690914106A0914206B09118
:10282000430629893A894B895C89281B390B4A0B55
:102830005B0BCA01B9010E94FB1A20E034E244E7B5
:1028400059E40E94201A4B015C012BA53CA54DA523
:102850005EA56FA178A589A59AA50E94AF199B01D5
:10286000AC0160E070E080E09FE30E94AE192D892A
:102870003E894F89588D0E944F1C6B017C012BA90A
:102880003CA94DA95EA96FA578A989A99AA90E941A
:10289000AE192D853E854F8558890E944F1C9B019E
:1028A000AC01C701B6010E94AF196B017C012BADD1
:1028B0003CAD4DAD5EAD6FA978AD89AD9AAD0E94CE
:1028C000AF1929853A854B855C850E944F1C9B0179
:1028D000AC01C701B6010E94AF199B01AC010E9477
:1028E000AF19A50194010E944F1C2091E30730917C
:1028F000E4074091E5075091E6070E94AF192B9637
:102900006CAF7DAF8EAF9FAF2B976093E307709353
:10291000E4078093E5079093E60723962CAD3DAD41
:102920004EAD5FAD23976BA57CA58DA59EA50E949E
:10293000AF199B01AC0160E070E080E09FE30E9472
:10294000AE192D853E854F8558890E944F1C6B011D
:102950007C012BA93CA94DA95EA96FA578A989A9DD
:102960009AA90E94AF192D893E894F89588D0E94DE
:102970004F1C9B01AC01C701B6010E94AF196B014E
:102980007C0127962CAD3DAD4EAD5FAD2797C301C1
:10299000B2010E94AE1929853A854B855C850E945B
:1029A0004F1C9B01AC01C701B6010E94AF199B01EE
:1029B000AC010E94AF19A50194010E944F1C209107
:1029C000E7073091E8074091E9075091EA070E9434
:1029D000AF196093E7077093E8078093E907909336
:1029E000EA072BAD3CAD4DAD5EAD6FA978AD89ADBD
:1029F0009AAD0E94AE192D893E894F89588D0E944B
:102A00004F1C6B017C0127962CAD3DAD4EAD5FADEB
:102A10002797C301B2010E94AF192D853E854F85CE
:102A200058890E944F1C9B01AC01C701B6010E944E
:102A3000AF196B017C0123962CAD3DAD4EAD5FAD62
:102A400023976FA178A589A59AA50E94AF199B012C
:102A5000AC0160E070E080E09FE30E94AE19298540
:102A60003A854B855C850E944F1C9B01AC01C701D8
:102A7000B6010E94AF199B01AC010E94AF19A501DC
:102A800094010E944F1C2091EB073091EC0740917C
:102A9000ED075091EE070E94AF196093EB0770931A
:102AA000EC078093ED079093EE072B964CAD5DAD50
:102AB0006EAD7FAD2B9785EC97E00E9400084091AA
:102AC000E7075091E8076091E9077091EA0787EA04
:102AD00097E00E9400084091EB075091EC0760914D
:102AE000ED077091EE0789E897E00E940008898958
:102AF0009A89AB89BC898093400690934106A09344
:102B00004206B093430688E20E94C2018AE190E047
:102B10000E942A0580E00E94690186E090E00E9400
:102B2000270180901B0890901C08A0901D08B09071
:102B30001E080E9414017C010E9414012D968FAF83
:102B40002D972C961FAE2C972D966EAD7FAD2D97A1
:102B50006E297F29072E000C880B990B0E94FD1A05
:102B600020E030E040E85DE30E944F1CA5019401A5
:102B70000E948D0560931B0870931C0880931D08AC
:102B800090931E088090130890901408A090150848
:102B9000B09016080E9414017C010E9414012F9627
:102BA0008FAF2F972E961FAE2E972F966EAD7FADBF
:102BB0002F976E297F29072E000C880B990B0E94F6
:102BC000FD1A20E030E040E85DE30E944F1CA501C3
:102BD00094010E948D0560931308709314088093EC
:102BE0001508909316088090170890901808A090E8
:102BF0001908B0901A080E9414017C010E94140167
:102C0000382E212CB1016E297F29072E000C880B4C
:102C1000990B0E94FD1A20E030E040E85DE30E943D
:102C20004F1CA50194010E948D0569877A878B87C7
:102C30009C876093170870931808809319089093E5
:102C40001A082091130830911408409115085091EA
:102C500016082D8B3E8B4F8B588F80911B089091BF
:102C60001C08A0911D08B0911E088D879E87AF8714
:102C7000B88B60910F0870911008809111089091A5
:102C800012082D853E854F8558890E948D056B0160
:102C90007C01C0920F08D0921008E0921108F092C7
:102CA00012086091070870910808809109089091B6
:102CB0000A089B01AC010E948D052B013C0140924A
:102CC0000708509208086092090870920A086091FB
:102CD0000B0870910C0880910D0890910E089B01D3
:102CE000AC010E948D054B015C0180920B08909213
:102CF0000C08A0920D08B0920E082D893E894F89CC
:102D0000588DC301B2010E94AE196093FB07709306
:102D1000FC078093FD079093FE0729853A854B8534
:102D20005C85C501B4010E94AE196093FF077093E2
:102D3000000880930108909302082D853E854F85F9
:102D40005889C701B6010E94AE19609303087093B9
:102D5000040880930508909306080E94B903698BC4
:102D60007A8B8B8B9C8B8091540690915506A09109
:102D70005606B091570629893A894B895C89281BE8
:102D8000390B4A0B5B0BCA01B9010E94FB1A20E008
:102D900034E244E759E40E94201A6B017C0120913F
:102DA00003083091040840910508509106080E94DC
:102DB0004F1C4B015C012091FF07309100084091AE
:102DC000010850910208C701B6010E944F1C2B0157
:102DD0003C012091FB073091FC074091FD07509189
:102DE000FE07C701B6010E944F1C2091EF073091EA
:102DF000F0074091F1075091F2070E94AF196093DC
:102E0000EF077093F0078093F1079093F207A30107
:102E100092016091F3077091F4078091F50790910A
:102E2000F6070E94AF196093F3077093F40780933D
:102E3000F5079093F607A50194016091F70770914B
:102E4000F8078091F9079091FA070E94AF196093F3
:102E5000F7077093F8078093F9079093FA0740916A
:102E60001B0850911C0860911D0870911E088BE68C
:102E700097E00E940008409117085091180860914F
:102E8000190870911A088DE497E00E94000840919B
:102E900013085091140860911508709116088FE27C
:102EA00097E00E9400088BE697E00E943205698750
:102EB0007A878B879C878FE297E00E9432056B01AF
:102EC0007C018DE497E00E9432052B013C0120E05B
:102ED00030E0A9016091F7077091F8078091F90738
:102EE0009091FA070E944F1C4B015C0120E030E0FA
:102EF000A9016091030870910408809105089091E0
:102F000006080E944F1C9B01AC01C501B4010E9440
:102F1000AF194B015C0120E030E0A90169857A8599
:102F20008B859C850E944F1C9B01AC01C501B4019F
:102F30000E94AF196D877E878F87988B20E030E0E5
:102F4000A9016091F3077091F4078091F5079091C2
:102F5000F6070E944F1C4B015C0120E030E0A90104
:102F60006091FF077091000880910108909102081C
:102F70000E944F1C9B01AC01C501B4010E94AF1916
:102F80004B015C0120E030E0A901C701B6010E94BD
:102F90004F1C9B01AC01C501B4010E94AF196D8BA0
:102FA0007E8B8F8B988F20E030E0A9016091EF0736
:102FB0007091F0078091F1079091F2070E944F1CE9
:102FC0006B017C016091FB077091FC078091FD070C
:102FD0009091FE079B01AC010E94AF199B01AC01CF
:102FE000C701B6010E94AF196B017C01A3019201D8
:102FF000C301B2010E94AF199B01AC01C701B60128
:103000000E94AF192B013C0120E030E842EA54E471
:103010000E94AF194B015C012D893E894F89588D63
:103020000E94AF192D853E854F8558890E94AE19A3
:103030006B017C0120E030E04AE754E40E941B1A57
:1030400087FD48C120E030E04AEF54E4C701B601F3
:103050000E94D41B18160CF446C1C701B6010E9489
:10306000CC1A69877A878B879C8789859A85AB85F7
:10307000BC858093500690935106A0935206B0935E
:1030800053062D893E894F89588DC501B4010E9490
:10309000AE192D853E854F8558890E94AF196B0169
:1030A0007C0120E030E04AE754E40E941B1A68EEFD
:1030B000862E63E0962EA12CB12C87FD16C020E051
:1030C00030E04AEF54E4C701B6010E94D41B50ED32
:1030D000852E57E0952EA12CB12C181634F0C7017F
:1030E000B6010E94CC1A4B015C0180924C06909272
:1030F0004D06A0924E06B0924F06A301920160E0E9
:1031000070E882EA94E40E94AE192B013C012D89FB
:103110003E894F89588D0E94AF192D853E854F8578
:1031200058890E94AF196B017C0120E030E04AE72A
:1031300054E40E941B1A87FDDFC020E030E04AEF14
:1031400054E4C701B6010E94D41B18160CF4DBC06E
:10315000C701B6010E94CC1A6B017C01C0924806DF
:10316000D0924906E0924A06F0924B062D893E899C
:103170004F89588DC301B2010E94AE192D853E853D
:103180004F8558890E94AE192B013C0120E030E0A8
:103190004AE754E40E941B1A87FDBCC020E030E0DF
:1031A0004AEF54E4C301B2010E94D41B18160CF478
:1031B000B8C0C301B2010E94CC1A2B013C0140925D
:1031C000440650924506609246067092470680EE8D
:1031D00095E00E94A4064AE069857A858B859C85E6
:1031E0000E945A068EED95E00E949E064AE0C501B7
:1031F000B4010E945A068EED95E00E949E064AE0B8
:10320000C701B6010E945A068EED95E00E949E0607
:103210004AE0C301B2010E945A060E94A006298911
:103220003A894B895C892093540630935506409324
:103230005606509357060E94B90363962CAD3DADD8
:103240004EAD5FAD6397621B730B840B950B6031C2
:1032500037E273078105910560F46230710548F02B
:10326000660F771F660F771F65507109CB010197B5
:10327000F1F70115110509F486C90E94000083C900
:1032800083E495E0A3C88BE495E0A0C883E595E0CE
:103290009DC88BE595E09AC882E695E097C88AE6D6
:1032A00095E094C882E795E091C886E795E08EC8DE
:1032B0008AE795E08BC882E895E088C886E895E0C3
:1032C00085C883E995E082C88CEA95E093C886EBCF
:1032D00095E090C888EE93E0A0E0B0E089879A87F7
:1032E000AB87BC87C2CE20ED37E040E050E02987B5
:1032F0003A874B875C87B9CE48EEC42E43E0D42E84
:10330000E12CF12C2BCF30EDC32E37E0D32EE12C66
:10331000F12C24CF28EE422E23E0522E612C712C6A
:103320004ECF90ED492E97E0592E612C712C47CF4E
:10333000F999FECF92BD81BDF89A992780B508957D
:10334000262FF999FECF1FBA92BD81BD20BD0FB6C1
:10335000F894FA9AF99A0FBE019608955058BB272F
:10336000AA270E94C6190C949A1B0E948C1B38F045
:103370000E94931B20F039F49F3F19F426F40C941B
:10338000621B0EF4E095E7FB0C945C1BE92F0E9496
:10339000AB1B58F3BA17620773078407950720F031
:1033A00079F4A6F50C94CD1B0EF4E0950B2EBA2FF4
:1033B000A02D0B01B90190010C01CA01A00111243B
:1033C000FF27591B99F0593F50F4503E68F11A16E7
:1033D000F040A22F232F342F4427585FF3CF469578
:1033E00037952795A795F0405395C9F77EF41F169A
:1033F000BA0B620B730B840BBAF09150A1F0FF0F64
:10340000BB1F661F771F881FC2F70EC0BA0F621F4F
:10341000731F841F48F4879577956795B795F7953F
:103420009E3F08F0B0CF9395880F08F09927EE0FD4
:103430009795879508950E94381B08F481E00895B8
:103440000E94341A0C949A1B0E94931B58F00E94FD
:103450008C1B40F029F45F3F29F00C945C1B511148
:103460000C94CE1B0C94621B0E94AB1B68F3992337
:10347000B1F3552391F3951B550BBB27AA27621770
:103480007307840738F09F5F5F4F220F331F441F7D
:10349000AA1FA9F335D00E2E3AF0E0E832D09150B1
:1034A0005040E695001CCAF72BD0FE2F29D0660F9E
:1034B000771F881FBB1F261737074807AB07B0E8E1
:1034C00009F0BB0B802DBF01FF2793585F4F3AF0E7
:1034D0009E3F510578F00C945C1B0C94CE1B5F3F13
:1034E000E4F3983ED4F3869577956795B795F7956D
:1034F0009F5FC9F7880F911D9695879597F9089555
:10350000E1E0660F771F881FBB1F621773078407F0
:10351000BA0720F0621B730B840BBA0BEE1F88F7FF
:10352000E095089529F416F00C945C1B0C94CD1BC7
:103530000C94621B0E94B31BA8F39638A0F707F8FF
:103540000F92E8942BE33AEA48EB5FE70E94651C90
:103550000F920F920F924DB75EB70F920E941B1CF5
:10356000ECEAF0E00E94651B4F915F91EF91FF91B3
:10357000E595EE1FFF1F49F0FE57E0684427EE0F68
:10358000441FFA95E1F74195550B0E94E51B0F90FA
:1035900007FE0C94D91B08950E94B31B88F09F5717
:1035A00098F0B92F9927B751B0F0E1F0660F771F67
:1035B000881F991F1AF0BA95C9F714C0B13091F05D
:1035C0000E94CD1BB1E008950C94CD1B672F782F7E
:1035D0008827B85F39F0B93FCCF386957795679522
:1035E000B395D9F73EF490958095709561957F4F8E
:1035F0008F4F9F4F0895E89409C097FB3EF4909534
:103600008095709561957F4F8F4F9F4F9923A9F0BB
:10361000F92F96E9BB279395F6958795779567954A
:10362000B795F111F8CFFAF4BB0F11F460FF1BC08E
:103630006F5F7F4F8F4F9F4F16C0882311F096E921
:1036400011C0772321F09EE8872F762F05C06623CF
:1036500071F096E8862F70E060E02AF09A95660F88
:10366000771F881FDAF7880F9695879597F9089541
:10367000990F0008550FAA0BE0E8FEEF1616170683
:10368000E807F907C0F012161306E407F50798F0EB
:10369000621B730B840B950B39F40A2661F0232B04
:1036A000242B252B21F408950A2609F4A140A69580
:1036B0008FEF811D811D089597F99F6780E870E065
:1036C00060E008959FEF80EC0895DF93CF931F9300
:1036D0000F93FF92EF92DF927B018C01689406C0FA
:1036E000DA2EEF010E94621CFE01E894A59125915B
:1036F000359145915591A6F3EF010E94C619FE013F
:103700009701A801DA9469F7DF90EF90FF900F918D
:103710001F91CF91DF91089500240A941616170681
:1037200018060906089500240A94121613061406B2
:1037300005060895092E0394000C11F4882352F015
:10374000BB0F40F4BF2B11F460FF04C06F5F7F4FCD
:103750008F4F9F4F089557FD9058440F551F59F0B4
:103760005F3F71F04795880F97FB991F61F09F3F6E
:1037700079F087950895121613061406551FF2CF97
:103780004695F1DF08C0161617061806991FF1CFE7
:1037900086957105610508940895E894BB2766270E
:1037A0007727CB0197F908950E94381B08F48FEF13
:1037B00008959B01AC0160E070E080E89FE30C9409
:1037C000201A0C945C1B0C94C11C0E94B31BD8F3F0
:1037D0009923C9F3940F511DA3F39150504094F0D5
:1037E00059F0882332F0660F771F881F91505040A0
:1037F000C1F79E3F51052CF7880F911D969587952F
:1038000097F908955F3FACF0983E9CF0BB278695F2
:1038100077956795B79508F4B1609395C1F7BB0F9D
:1038200058F711F460FFE8CF6F5F7F4F8F4F9F4FC6
:10383000E3CF0C94CE1BFA01DC01AA0FBB1F9B0146
:10384000AC01BF5728F4222733274427507820C0E3
:10385000B75190F4AB2F0024469537952795011C5E
:10386000A395D2F3002071F0220F331F441FB395AC
:10387000DAF30ED00C94AE1961307105A0E88A0716
:10388000B94630F49B01AC016627772788279078EA
:10389000309621F0208331834283538308950E9420
:1038A000621C0C949A1B0E948C1B38F00E94931B84
:1038B00020F0952311F00C945C1B0C94621B1124D6
:1038C0000C94CE1B0E94AB1B70F3959FC1F3950F18
:1038D00050E0551F629FF001729FBB27F00DB11D94
:1038E000639FAA27F00DB11DAA1F649F6627B00D24
:1038F000A11D661F829F2227B00DA11D621F739F0D
:10390000B00DA11D621F839FA00D611D221F749F1A
:103910003327A00D611D231F849F600D211D822F61
:10392000762F6A2F11249F5750409AF0F1F0882388
:103930004AF0EE0FFF1FBB1F661F771F881F9150B5
:103940005040A9F79E3F510580F00C945C1B0C94ED
:10395000CE1B5F3FE4F3983ED4F386957795679549
:10396000B795F795E7959F5FC1F7FE2B880F911DDF
:103970009695879597F908950E94381B880B990BA7
:1039800008959F3F31F0915020F487957795679582
:10399000B795880F911D9695879597F90895A1E29F
:1039A0001A2EAA1BBB1BFD010DC0AA1FBB1FEE1FB9
:1039B000FF1FA217B307E407F50720F0A21BB30B04
:1039C000E40BF50B661F771F881F991F1A9469F780
:1039D00060957095809590959B01AC01BD01CF01DC
:1039E0000895EE0FFF1F0590F491E02D0994F894CF
:0239F000FFCF07
:1039F200FFFFFFFF00E100000000000000C1808126
:103A0200000000000000005E0310047F0374039FA7
:103A12000383038F0300000000FB04CE042F05B7CD
:103A220004C7040101B8040D0A006E616E00696EDC
:103A320066006F76660043414C4942524154494FF9
:103A42004E3A2000205359533D00204759523D0021
:103A5200204143433D00204D41473D005374617274
:103A62007400466F756E642049443A20004E6F2000
:103A720043616C6962726174696F6E204461746142
:103A820020666F7220746869732073656E736F723B
:103A92002065786973747320696E20454550524FD2
:103AA2004D00466F756E642043616C696272617489
:103AB200696F6E20666F7220746869732073656E19
:103AC200736F7220696E20454550524F4D0052650A
:103AD20073746F72696E672043616C69627261749C
:103AE200696F6E206461746120746F207468652050
:103AF200424E4F3035352E2E2E0057726974696E44
:103B0200672043616C6962726174696F6E206461DF
:103B1200746120746F20454550524F4D2E2E2E0059
:103B220043616C6962726174696F6E206461746171
:103B3200206C6F6164656420696E746F2045455026
:103B4200524F4D0043616C6962726174696F6E20FD
:103B520064617461206C6F6164656420696E746F66
:103B620020424E4F303535002D2D2D2D2D2D2D2D52
:103B72002D2D494E495420444F4E452D2D2D2D2D8E
:103B82002D2D2D2D2D00535420524553554C543A72
:103B92002000204D4355204F4B0020475952204FC3
:103BA2004B00204D4147204F4B0020414343204FC3
:103BB2004B0053595354454D205354415455533A95
:103BC200200030202D2053797374656D2069646C58
:103BD200650031202D2053797374656D2045727212
:103BE2006F720032202D20496E697469616C697AA6
:103BF200696E67207065726970686572616C7300C6
:103C020033202D2053797374656D20496E697420B9
:103C120069616C697A6174696F6E0034202D204588
:103C22007865637574696E672073656C6674657315
:103C3200740035202D2053656E736F722066757384
:103C4200696F6E20616C676F726974686D2072753E
:103C52006E6E696E670036202D2053797374656D20
:103C62002072756E6E696E6720776974686F7574FD
:103C720020667573696F6E20616C676F7269746814
:103C82006D0053595354454D204552524F523A20DC
:103C92000030202D204E6F206572726F720031202D
:103CA2002D205065726970686572616C20696E6959
:103CB200742069616C697A6174696F6E20657272D1
:103CC2006F720032202D2053797374656D20696EF6
:103CD20069742069616C697A6174696F6E206572BA
:103CE200726F720033202D2053656C6620746573E9
:103CF2007420726573756C74206661696C6564000A
:103D020034202D205265676973746572206D61706D
:103D12002076616C7565206F7574206F6620726104
:103D22006E67650035202D20526567697374657270
:103D3200206D61702061646472657373206F7574A5
:103D4200206F662072616E67650036202D205265F5
:103D5200676973746572206D61702077726974652A
:103D6200206572726F720037202D20424E4F206CF8
:103D72006F7720706F776572206D6F6465206E6F4C
:103D82007420617661696C61626C6520666F722075
:103D920073656C6563746564206F706572617469C4
:103DA2006F6E206D6F64650038202D20416363655E
:103DB2006C65726F6D6574657220706F77657220C5
:103DC2006D6F6465206E6F7420617661696C6162EB
:103DD2006C650039202D20467573696F6E20616C09
:103DE200676F726974686D20636F6E66696775725A
:103DF2006174696F6E206572726F720041202D20AE
:103E020053656E736F7220636F6E66696775726158
:103E120074696F6E206572726F72004F5045524125
:103E220054494F4E204D4F44453A2000434F4E4691
:103E32004947004143434F4E4C59004D41474F4E75
:103E42004C59004759524F4E4C59004143434D4142
:103E520047004143434759524F004D41474759524A
:103E62004F00414D4700494D5500434F4D5041537E
:103E720053004D3447004E444F465F464D435F4F1B
:103E82004646004E444F4600504F574552204D4F34
:103E920044453A20004E4F524D414C004C4F572062
:103EA200504F5745520053555350454E44005345C9
:103EB20054504F494E5453202850495443482C20C3
:103EC200524F4C4C2C20594157293A20002C2000AB
:0C3ED2004D31204D32204D33204D340086
:1070000055C000006EC000006CC000006AC00000E7
:1070100068C0000066C0000064C0000062C00000DC
:1070200060C000005EC0000065C400005AC00000DF
:1070300058C0000056C0000054C0000052C00000FC
:1070400050C000004EC000004CC000004AC000000C
:1070500048C0000046C0000044C0000042C000001C
:1070600040C000003EC000003CC000003AC000002C
:1070700038C0000036C0000034C0000032C000003C
:1070800030C000002EC000002CC000002AC000004C
:1070900028C0000026C0000024C0000022C000005C
:1070A00020C000001EC000001CC0000011241FBE34
:1070B000CFEFDAE0DEBFCDBF11E0A0E0B1E0EEE25D
:1070C000FEE702C005900D92AC38B107D9F711E088
:1070D000ACE8B1E001C01D92AD39B107E1F7F2D2E1
:1070E000A4C68ECF84E08093E9000DC08091E800B3
:1070F0008B778093E80003C08EB3882351F0809192
:10710000E80082FFF9CF8091E80085FFEFCF809102
:10711000F1000895982F83E08093E9008091E800C2
:1071200085FD0DC08091E8008E778093E80003C054
:107130008EB3882331F08091E80080FFF9CF9093DF
:10714000F10008954F925F926F927F928F929F927B
:10715000AF92BF92CF92DF92EF92FF920F931F9365
:10716000CF93DF9384E08093E9008091E80082FF71
:1071700044C210928C01B6DF082F8C3409F43BC056
:107180008035C9F1843529F0853429F410920F0136
:1071900032C0A8DF30C0843721F484E4BBDF80E054
:1071A00002C2813611F489E5FEC1813431F59ADFDE
:1071B000F82EFF0CEE240027F7FC0095102FE0922C
:1071C0008F01F092900100939101109392018ADF58
:1071D00090E0880F991FAA2797FDA095BA2F8E29B6
:1071E0009F29A02BB12B80938F0190939001A093A6
:1071F0009101B09392018DE0D6C1803711F483E5FF
:10720000D2C1833549F4C0E0D1E0899183DF21E028
:10721000C730D207D1F7C8C1863521F481E37ADFC0
:1072200080E3C1C1833731F487E874DF85E972DF19
:107230008EE1B9C1823631F489E56CDF80E06ADF26
:1072400080E8B1C18536B9F4E0E0F0E093E085E094
:1072500090935700E89507B600FCFDCF8093570048
:10726000E89507B600FCFDCFEF57FF4F20E7EF355D
:10727000F20771F7C0CF8C3651F434DF809599E076
:10728000E1E0F0E0082E90935700E895B4CF823704
:1072900039F4E1E0F0E089E080935700849183C104
:1072A000863439F4E0E0F0E089E08093570084917F
:1072B0007AC18E3439F4E3E0F0E089E0809357003E
:1072C000849171C1813539F4E2E0F0E089E0809386
:1072D0005700849168C1833471F400918F0110913B
:1072E000900100DF90E021E0F8010C0120935700AD
:1072F000E895112480CF833679F400918F011091A5
:1073000090010160EFDE90E021E0F8010C01209394
:107310005700E895112414C18D3661F4E0918F0176
:10732000F091900185E080935700E89507B600FC46
:10733000FDCF61CF823419F0873609F0E3C0D2DE89
:10734000E82ED0DED82ECEDEA82E8554823008F06E
:1073500029C19E2D80E0CD2DD0E0C82BD92B07363A
:1073600009F052C081E180935700E89500E011E0F8
:1073700047C0F6E4AF1611F5E02FF0E080918F01E1
:1073800090919001E82BF92BE4918E2FC3DE00231E
:1073900099F080918F0190919001A0919101B0910D
:1073A00092010296A11DB11D80938F0190939001CF
:1073B000A0939101B0939201012721C080918F0188
:1073C00090919001A0919101B0919201B695A795ED
:1073D0009795879514D59EDE80918F0190919001AD
:1073E000A0919101B09192010296A11DB11D8093CF
:1073F0008F0190939001A0939101B09392012197F6
:10740000209709F0B6CFD0C060908F0170909001A6
:10741000809091019090920126E4A21609F05EC03E
:1074200083E0F30180935700E89507B600FCFDCF99
:1074300055C0F6E4AF1669F5BB2031F100918F011C
:10744000109190014FDED82ECC24852D90E08C2910
:107450009D29F8010C0140925700E8951124809174
:107460008F0190919001A0919101B09192010296AB
:10747000A11DB11D80938F0190939001A093910164
:10748000B0939201BB2428C02DDE582EBB24B394A8
:1074900023C0E0908F01F090900100919101109134
:1074A000920116950795F794E7941CDE682FC701A3
:1074B000AED480918F0190919001A0919101B091F3
:1074C00092010296A11DB11D80938F0190939001AE
:1074D000A0939101B0939201219704C05524BB243D
:1074E00044244394209709F0A4CFF6E4AF1609F0A2
:1074F00082CE85E0F30180935700E89507B600FC43
:10750000FDCF79CE823551F4E0918F01F091900159
:1075100005911491812FFEDD802F45C08434E1F464
:10752000E0908F01F09090010091910110919201F3
:1075300016950795F794E794D5DD682FC70167D4B2
:1075400080918F0190919001A0919101B091920151
:107550000296A11DB11D47CE843611F580918F0191
:1075600090919001A0919101B0919201B695A7954B
:107570009795879544D4CEDD80918F0190919001AD
:10758000A0919101B09192010296A11DB11D80932D
:107590008F0190939001A0939101B093920104C048
:1075A0008B3111F08FE3B6DD83E08093E900909199
:1075B000E8008091E8008E778093E80095FF04C092
:1075C00010C08EB38823C9F08091E80080FFF9CF06
:1075D0008091E8008E778093E80003C08EB3882303
:1075E00061F08091E80080FFF9CF84E08093E900AA
:1075F0008091E8008B778093E800DF91CF911F9115
:107600000F91FF90EF90DF90CF90BF90AF909F9041
:107610008F907F906F905F904F900895809196012A
:107620008032B1F0813239F580919501813A19F5B6
:107630008091E800877F8093E80088E091E067E030
:1076400070E023D38091E8008B778093E800089561
:1076500080919501813279F48091E800877F809351
:10766000E80088E091E067E070E073D38091E80083
:107670008E778093E800089582E061EC42E0ADD01F
:1076800083E061E842E1A9D084E060E842E1A5C07E
:1076900084B7877F84BF88E10FB6F8948093600039
:1076A000109260000FBE80E090E020E80FB6F894E2
:1076B00020936100809361000FBE81E085BF82E06E
:1076C00085BF02C1FF920F931F93CF93DF9324B71F
:1076D00014BE809160008861809360001092600009
:1076E00010928C0130E0F901E270F07021FD0AC0C7
:1076F000859194918F5F9F4F29F0E0918D01F091DA
:107700008E010995C5DF6E9A769A7894FF2410E071
:1077100001E0E0E0F0E0C591D49121C013DD5DD33C
:10772000F39411F4100F769AF11609F476981F3F2E
:1077300011F40FEF0AC0112341F4013031F08091B0
:107740008C018F5F80938C0101E080918C018530EA
:1077500030F08FEFCF3FD80711F010920F018091DA
:107760000F018823D9F68091E00081608093E000CA
:107770002CE088E190E00FB6F894A8958093600023
:107780000FBE20936000FFCFFA01923071F093306A
:1077900089F0913029F480E191E022E130E019C0D4
:1077A00080E090E020E030E014C082E291E02EE33F
:1077B00030E00FC0882339F480916001282F30E039
:1077C00080E691E006C080916401282F30E084E6D5
:1077D00091E091838083C90108958093E9008091AD
:1077E000EB0081608093EB001092ED006093EC0061
:1077F0004093ED008091EE00881F8827881F089530
:107800008091950188238CF403C08EB38823B1F056
:107810008091E80082FFF9CF8091E8008B77809318
:10782000E80008958EB3882349F08091E80080FF36
:10783000F9CF8091E8008E778093E80008954DD0CD
:1078400054D08091D800982F9F779093D80080686B
:107850008093D8008AE482BF80E189BD89B58260C7
:1078600089BD09B400FEFDCF8091D8008F7D809343
:10787000D8001EBA109293018091E0008B7F809314
:10788000E0008091D80081608093D80080E060E0C3
:1078900042E0A3DF8091E1008E7F8093E100809140
:1078A000E20081608093E2008091E2008860809332
:1078B000E2008091E0008E7F8093E0008091D8000C
:1078C00080618093D8000895E7EDF0E080818160C9
:1078D000808381E080939401B2CFE8EDF0E0808175
:1078E0008E7F80831092E20008951092DA00109249
:1078F000E10008951F920F920FB60F9211242F935B
:107900003F934F935F936F937F938F939F93AF9327
:10791000BF93EF93FF938091DA0080FF13C08091B3
:10792000D80080FF0FC08091DA008E7F8093DA004C
:107930008091D90080FF04C081E08EBBA5D102C038
:107940001EBAA2D18091E10080FF1CC08091E200AC
:1079500080FF18C08091E1008E7F8093E1008091CC
:10796000E2008E7F8093E2008091E200806180934C
:10797000E2008091D80080628093D80019BC85E035
:107980008EBB82D18091E10084FF2DC08091E20006
:1079900084FF29C080E189BD89B5826089BD09B4B1
:1079A00000FEFDCF8091D8008F7D8093D80080911C
:1079B000E1008F7E8093E1008091E2008F7E8093D2
:1079C000E2008091E20081608093E2008091930167
:1079D000882331F48091E30087FD02C081E001C07B
:1079E00084E08EBB51D18091E10083FF21C0809162
:1079F000E20083FF1DC08091E100877F8093E1005A
:107A000082E08EBB109293018091E1008E7F809383
:107A1000E1008091E2008E7F8093E2008091E2009D
:107A200080618093E20080E060E042E0D6DE2CD10D
:107A30008091E10082FF0AC08091E20082FF06C0CF
:107A40008091E1008B7F8093E1001ED1FF91EF9147
:107A5000BF91AF919F918F917F916F915F914F9166
:107A60003F912F910F900FBE0F901F9018950F937D
:107A70001F93DF93CF9300D0CDB7DEB7E5E9F1E0F8
:107A80008091F100819381E0ED39F807C9F7809189
:107A9000950190919601953009F46DC0963040F4AF
:107AA000913081F1913070F0933009F0D7C02AC045
:107AB000983009F4A5C0993009F4B4C0963009F0A3
:107AC000CDC07EC0803809F4CAC0823809F0C6C073
:107AD0008091990187708093E9008091EB0010926A
:107AE000E9002091E800277F2093E80090E025E05E
:107AF000969587952A95E1F781708093F100109211
:107B0000F10089C0882319F0823009F0A7C08F7175
:107B1000823009F0A4C080919701882331F520912B
:107B20009901277009F49BC02093E9008091EB0034
:107B300080FF1BC0933021F48091EB00806213C062
:107B40008091EB0080618093EB0081E090E002C0C7
:107B5000880F991F2A95E2F78093EA001092EA00B5
:107B60008091EB0088608093EB001092E900809197
:107B7000E800877F53C0882309F070C010919701F7
:107B80001F770FB7F8948091E800877F8093E80013
:107B900037DE8091E80080FFFCCF112311F482E0F2
:107BA00001C083E08EBB8091E3008078182B109396
:107BB000E3008091E30080688093E3000FBF4FC033
:107BC0008058823008F04AC08091970190919801C6
:107BD00060919901AE014F5F5F4FD6DDBC01009708
:107BE00009F43DC08091E800877F8093E800898197
:107BF0009A814BD08091E8008B778093E8002FC06A
:107C0000803861F58091E800877F8093E80080915B
:107C100093018093F1008091E8008E778093E800D3
:107C2000EFDD1DC08823D1F4909197019230B8F414
:107C30008091E800877F8093E80090939301E0DDD6
:107C400080919301882331F48091E30087FD02C085
:107C500081E001C084E08EBB0FDD01C0DFDC8091DC
:107C6000E80083FF0AC08091EB0080628093EB0004
:107C70008091E800877F8093E8000F900F90CF916C
:107C8000DF911F910F91089508959C0140919B01F0
:107C900050919C014617570718F4F90190E044C031
:107CA0006115710511F0AB01F8CF8091E8008E7776
:107CB0008093E80040E050E0F0CF8EB3882309F4D1
:107CC00044C0853009F443C08091E80083FF02C0BE
:107CD00081E008958091E80082FD31C08091E80044
:107CE00080FF22C08091F3009091F200782F60E035
:107CF000292F30E0262B372B07C081918093F1008C
:107D0000415050402F5F3F4F4115510519F0283029
:107D1000310598F390E02830310509F491E0809125
:107D2000E8008E778093E8004115510531F69923DC
:107D300021F605C08EB3882341F0853041F0809153
:107D4000E80082FFF7CF80E0089582E0089583E0A5
:107D500008959C016115710529F48091E8008B77E5
:107D60008093E800F90126C08EB3882391F1853015
:107D700091F18091E80083FF02C081E00895809135
:107D8000E80082FFF1CF06C08091F100819361503D
:107D9000704059F02091F3008091F200322F20E0E2
:107DA00090E0822B932B892B79F78091E8008B77D9
:107DB0008093E80061157105B9F605C08EB388237C
:107DC00041F0853041F08091E80080FFF7CF80E0FE
:107DD000089582E0089583E008951F938EB3882369
:107DE00061F01091E9001092E9008091E80083FFB2
:107DF00001C03DDE17701093E9001F910895F999B5
:107E0000FECF92BD81BDF89A992780B50895262F9F
:107E1000F999FECF1FBA92BD81BD20BD0FB6F8946F
:0E7E2000FA9AF99A0FBE01960895F894FFCFD2
:107E2E004C55464143444300000000000000080149
:107E3E0012011001020000089A2301000100000146
:107E4E00000109023E000201008032090400000117
:107E5E000202010005240010010424020405240678
:107E6E0000010705820308000209040100020A004E
:107E7E000000070504021000000705830210000031
:107E8E00040309042603410056005200200043005B
:107E9E0044004300200042006F006F0074006C002D
:0C7EAE006F0061006400650072000000BD
:040000030000700089
:00000001FF
